{
  "_format": "hh-sol-artifact-1",
  "contractName": "DynamicMetadata",
  "sourceName": "contracts/common/libraries/DynamicMetadata.sol",
  "abi": [
    {
      "inputs": [
        {
          "components": [
            {
              "internalType": "string",
              "name": "displayType",
              "type": "string"
            },
            {
              "internalType": "string",
              "name": "traitType",
              "type": "string"
            },
            {
              "internalType": "string",
              "name": "value",
              "type": "string"
            }
          ],
          "internalType": "struct Attribute[]",
          "name": "baseAttributes",
          "type": "tuple[]"
        },
        {
          "components": [
            {
              "internalType": "string",
              "name": "displayType",
              "type": "string"
            },
            {
              "internalType": "string",
              "name": "traitType",
              "type": "string"
            },
            {
              "internalType": "string",
              "name": "value",
              "type": "string"
            }
          ],
          "internalType": "struct Attribute[]",
          "name": "dynamicAttributes",
          "type": "tuple[]"
        }
      ],
      "name": "concatDynamicAttributes",
      "outputs": [
        {
          "components": [
            {
              "internalType": "string",
              "name": "displayType",
              "type": "string"
            },
            {
              "internalType": "string",
              "name": "traitType",
              "type": "string"
            },
            {
              "internalType": "string",
              "name": "value",
              "type": "string"
            }
          ],
          "internalType": "struct Attribute[]",
          "name": "",
          "type": "tuple[]"
        }
      ],
      "stateMutability": "pure",
      "type": "function"
    },
    {
      "inputs": [
        {
          "internalType": "string",
          "name": "key",
          "type": "string"
        },
        {
          "internalType": "string",
          "name": "value",
          "type": "string"
        }
      ],
      "name": "keyValueToJsonInBytes",
      "outputs": [
        {
          "internalType": "bytes",
          "name": "",
          "type": "bytes"
        }
      ],
      "stateMutability": "pure",
      "type": "function"
    },
    {
      "inputs": [
        {
          "components": [
            {
              "internalType": "string",
              "name": "displayType",
              "type": "string"
            },
            {
              "internalType": "string",
              "name": "traitType",
              "type": "string"
            },
            {
              "internalType": "string",
              "name": "value",
              "type": "string"
            }
          ],
          "internalType": "struct Attribute[]",
          "name": "attributesToMap",
          "type": "tuple[]"
        }
      ],
      "name": "mapToBytes",
      "outputs": [
        {
          "internalType": "bytes",
          "name": "",
          "type": "bytes"
        }
      ],
      "stateMutability": "pure",
      "type": "function"
    },
    {
      "inputs": [
        {
          "components": [
            {
              "internalType": "string",
              "name": "description",
              "type": "string"
            },
            {
              "internalType": "string",
              "name": "image",
              "type": "string"
            },
            {
              "internalType": "string",
              "name": "name",
              "type": "string"
            },
            {
              "components": [
                {
                  "internalType": "string",
                  "name": "displayType",
                  "type": "string"
                },
                {
                  "internalType": "string",
                  "name": "traitType",
                  "type": "string"
                },
                {
                  "internalType": "string",
                  "name": "value",
                  "type": "string"
                }
              ],
              "internalType": "struct Attribute[]",
              "name": "attributes",
              "type": "tuple[]"
            },
            {
              "components": [
                {
                  "internalType": "address",
                  "name": "recipientAddress",
                  "type": "address"
                },
                {
                  "internalType": "uint16",
                  "name": "feePercentage",
                  "type": "uint16"
                }
              ],
              "internalType": "struct Royalty",
              "name": "royalty",
              "type": "tuple"
            }
          ],
          "internalType": "struct Metadata",
          "name": "metadata",
          "type": "tuple"
        }
      ],
      "name": "toBase64URI",
      "outputs": [
        {
          "internalType": "string",
          "name": "",
          "type": "string"
        }
      ],
      "stateMutability": "pure",
      "type": "function"
    },
    {
      "inputs": [
        {
          "components": [
            {
              "internalType": "string",
              "name": "displayType",
              "type": "string"
            },
            {
              "internalType": "string",
              "name": "traitType",
              "type": "string"
            },
            {
              "internalType": "string",
              "name": "value",
              "type": "string"
            }
          ],
          "internalType": "struct Attribute",
          "name": "attribute",
          "type": "tuple"
        }
      ],
      "name": "toBytes",
      "outputs": [
        {
          "internalType": "bytes",
          "name": "",
          "type": "bytes"
        }
      ],
      "stateMutability": "pure",
      "type": "function"
    }
  ],
  "bytecode": "0x61178761003a600b82828239805160001a60731461002d57634e487b7160e01b600052600060045260246000fd5b30600052607381538281f3fe730000000000000000000000000000000000000000301460806040526004361061006c5760003560e01c80632491645614610071578063394540161461009a57806355edf072146100bc578063917dc0f2146100cf578063e914a810146100e2578063ec735f0f14610102575b600080fd5b61008461007f366004610be0565b610115565b6040516100919190610c9b565b60405180910390f35b8180156100a657600080fd5b506100ba6100b5366004610cf9565b610141565b005b6100846100ca366004610d44565b6101ae565b6100846100dd366004610d7e565b610406565b6100f56100f0366004610dbf565b6104ff565b6040516100919190610e2a565b610084610110366004610f79565b610666565b6060828260405160200161012a929190610fad565b604051602081830303815290604052905092915050565b60005b818110156101a8578383838381811061015f5761015f611001565b90506020028101906101719190611017565b81546001810183556000928352602090922090916003020161019382826111c7565b505080806101a0906112dc565b915050610144565b50505050565b60408051808201909152600b81526a3232b9b1b934b83a34b7b760a91b602082015260609060009061021e906101e48580611037565b8080601f01602080910402602001604051908101604052809392919081815260200183838082843760009201919091525061011592505050565b9050600061025360405180604001604052806005815260200164696d61676560d81b8152508580602001906101e49190611037565b60408051808201825260048152636e616d6560e01b6020820152919250600091610283916101e490880188611037565b905060006102976100dd60608801886112f7565b90506000848484846040516020016102b29493929190611340565b60408051601f1981840301815291905290506102d460c0880160a089016113c5565b61ffff16156103b05760408051808201909152601781527f73656c6c65725f6665655f62617369735f706f696e747300000000000000000060208201526000906103349061007f61032b60c08c0160a08d016113c5565b61ffff16610740565b60408051808201909152600d81526c19995957dc9958da5c1a595b9d609a1b60208201529091506000906103859061007f61037560a08d0160808e016113e9565b6001600160a01b03166014610845565b905082828260405160200161039c93929190611412565b604051602081830303815290604052925050505b806040516020016103c1919061146c565b60405160208183030381529060405290506103db816109eb565b6040516020016103eb9190611491565b60405160208183030381529060405295505050505050919050565b60408051808201909152600e81526d2261747472696275746573223a5b60901b602082015260609060005b61043c6001856114d6565b8163ffffffff1610156104b5578161048086868463ffffffff1681811061046557610465611001565b90506020028101906104779190611017565b610110906114ed565b6040516020016104919291906114ff565b604051602081830303815290604052915080806104ad9061153a565b915050610431565b50806104d685856104c76001826114d6565b81811061046557610465611001565b6040516020016104e792919061155e565b60408051808303601f19018152919052949350505050565b6060600061050d8386611599565b90506000816001600160401b0381111561052957610529610b3e565b60405190808252806020026020018201604052801561057e57816020015b61056b60405180606001604052806060815260200160608152602001606081525090565b8152602001906001900390816105475790505b50905060005b868110156105e95787878281811061059e5761059e611001565b90506020028101906105b09190611017565b6105b9906114ed565b8282815181106105cb576105cb611001565b602002602001018190525080806105e1906112dc565b915050610584565b5060005b8481101561065b5785858281811061060757610607611001565b90506020028101906106199190611017565b610622906114ed565b8261062d838a611599565b8151811061063d5761063d611001565b60200260200101819052508080610653906112dc565b9150506105ed565b509695505050505050565b6040805180820190915260018152607b60f81b602082015281515160609190156106cd578251604051829161069d916020016115b1565b60408051601f19818403018152908290526106bb92916020016115f6565b60405160208183030381529060405290505b80836020015184604001516040516020016106e9929190611625565b60408051601f198184030181529082905261070792916020016115f6565b604051602081830303815290604052905080604051602001610729919061146c565b604051602081830303815290604052915050919050565b6060816107645750506040805180820190915260018152600360fc1b602082015290565b8160005b811561078e5780610778816112dc565b91506107879050600a836116b3565b9150610768565b6000816001600160401b038111156107a8576107a8610b3e565b6040519080825280601f01601f1916602001820160405280156107d2576020820181803683370190505b5090505b841561083d576107e76001836114d6565b91506107f4600a866116c7565b6107ff906030611599565b60f81b81838151811061081457610814611001565b60200101906001600160f81b031916908160001a905350610836600a866116b3565b94506107d6565b949350505050565b606060006108548360026116db565b61085f906002611599565b6001600160401b0381111561087657610876610b3e565b6040519080825280601f01601f1916602001820160405280156108a0576020820181803683370190505b509050600360fc1b816000815181106108bb576108bb611001565b60200101906001600160f81b031916908160001a905350600f60fb1b816001815181106108ea576108ea611001565b60200101906001600160f81b031916908160001a905350600061090e8460026116db565b610919906001611599565b90505b6001811115610991576f181899199a1a9b1b9c1cb0b131b232b360811b85600f166010811061094d5761094d611001565b1a60f81b82828151811061096357610963611001565b60200101906001600160f81b031916908160001a90535060049490941c9361098a816116fa565b905061091c565b5083156109e45760405162461bcd60e51b815260206004820181905260248201527f537472696e67733a20686578206c656e67746820696e73756666696369656e74604482015260640160405180910390fd5b9392505050565b6060815160001415610a0b57505060408051602081019091526000815290565b60006040518060600160405280604081526020016117126040913990506000600384516002610a3a9190611599565b610a4491906116b3565b610a4f9060046116db565b6001600160401b03811115610a6657610a66610b3e565b6040519080825280601f01601f191660200182016040528015610a90576020820181803683370190505b509050600182016020820185865187015b80821015610afc576003820191508151603f8160121c168501518453600184019350603f81600c1c168501518453600184019350603f8160061c168501518453600184019350603f8116850151845350600183019250610aa1565b5050600386510660018114610b185760028114610b2b57610b33565b603d6001830353603d6002830353610b33565b603d60018303535b509195945050505050565b634e487b7160e01b600052604160045260246000fd5b600082601f830112610b6557600080fd5b81356001600160401b0380821115610b7f57610b7f610b3e565b604051601f8301601f19908116603f01168101908282118183101715610ba757610ba7610b3e565b81604052838152866020858801011115610bc057600080fd5b836020870160208301376000602085830101528094505050505092915050565b60008060408385031215610bf357600080fd5b82356001600160401b0380821115610c0a57600080fd5b610c1686838701610b54565b93506020850135915080821115610c2c57600080fd5b50610c3985828601610b54565b9150509250929050565b60005b83811015610c5e578181015183820152602001610c46565b838111156101a85750506000910152565b60008151808452610c87816020860160208601610c43565b601f01601f19169290920160200192915050565b6020815260006109e46020830184610c6f565b60008083601f840112610cc057600080fd5b5081356001600160401b03811115610cd757600080fd5b6020830191508360208260051b8501011115610cf257600080fd5b9250929050565b600080600060408486031215610d0e57600080fd5b8335925060208401356001600160401b03811115610d2b57600080fd5b610d3786828701610cae565b9497909650939450505050565b600060208284031215610d5657600080fd5b81356001600160401b03811115610d6c57600080fd5b820160c081850312156109e457600080fd5b60008060208385031215610d9157600080fd5b82356001600160401b03811115610da757600080fd5b610db385828601610cae565b90969095509350505050565b60008060008060408587031215610dd557600080fd5b84356001600160401b0380821115610dec57600080fd5b610df888838901610cae565b90965094506020870135915080821115610e1157600080fd5b50610e1e87828801610cae565b95989497509550505050565b60006020808301818452808551808352604092508286019150828160051b87010184880160005b83811015610ebd57603f19898403018552815160608151818652610e7782870182610c6f565b915050888201518582038a870152610e8f8282610c6f565b91505087820151915084810388860152610ea98183610c6f565b968901969450505090860190600101610e51565b509098975050505050505050565b600060608284031215610edd57600080fd5b604051606081016001600160401b038282108183111715610f0057610f00610b3e565b816040528293508435915080821115610f1857600080fd5b610f2486838701610b54565b83526020850135915080821115610f3a57600080fd5b610f4686838701610b54565b60208401526040850135915080821115610f5f57600080fd5b50610f6c85828601610b54565b6040830152505092915050565b600060208284031215610f8b57600080fd5b81356001600160401b03811115610fa157600080fd5b61083d84828501610ecb565b6000601160f91b8083528451610fca816001860160208901610c43565b62111d1160e91b6001918501918201528451610fed816004840160208901610c43565b016004810191909152600501949350505050565b634e487b7160e01b600052603260045260246000fd5b60008235605e1983360301811261102d57600080fd5b9190910192915050565b6000808335601e1984360301811261104e57600080fd5b8301803591506001600160401b0382111561106857600080fd5b602001915036819003821315610cf257600080fd5b600181811c9082168061109157607f821691505b602082108114156110b257634e487b7160e01b600052602260045260246000fd5b50919050565b601f82111561110257600081815260208120601f850160051c810160208610156110df5750805b601f850160051c820191505b818110156110fe578281556001016110eb565b5050505b505050565b6001600160401b0383111561111e5761111e610b3e565b6111328361112c835461107d565b836110b8565b6000601f841160018114611166576000851561114e5750838201355b600019600387901b1c1916600186901b1783556111c0565b600083815260209020601f19861690835b828110156111975786850135825560209485019460019092019101611177565b50868210156111b45760001960f88860031b161c19848701351681555b505060018560011b0183555b5050505050565b6111d18283611037565b6001600160401b038111156111e8576111e8610b3e565b6111fc816111f6855461107d565b856110b8565b6000601f82116001811461123057600083156112185750838201355b600019600385901b1c1916600184901b17855561128a565b600085815260209020601f19841690835b828110156112615786850135825560209485019460019092019101611241565b508482101561127e5760001960f88660031b161c19848701351681555b505060018360011b0185555b5050505061129b6020830183611037565b6112a9818360018601611107565b50506112b86040830183611037565b6101a8818360028601611107565b634e487b7160e01b600052601160045260246000fd5b60006000198214156112f0576112f06112c6565b5060010190565b6000808335601e1984360301811261130e57600080fd5b8301803591506001600160401b0382111561132857600080fd5b6020019150600581901b3603821315610cf257600080fd5b607b60f81b81526000855161135c816001850160208a01610c43565b8083019050600b60fa1b806001830152865161137f816002850160208b01610c43565b60029201918201819052855161139c816003850160208a01610c43565b600392019182015283516113b7816004840160208801610c43565b016004019695505050505050565b6000602082840312156113d757600080fd5b813561ffff811681146109e457600080fd5b6000602082840312156113fb57600080fd5b81356001600160a01b03811681146109e457600080fd5b60008451611424818460208901610c43565b8083019050600b60fa1b8082528551611444816001850160208a01610c43565b6001920191820152835161145f816002840160208801610c43565b0160020195945050505050565b6000825161147e818460208701610c43565b607d60f81b920191825250600101919050565b7f646174613a6170706c69636174696f6e2f6a736f6e3b6261736536342c0000008152600082516114c981601d850160208701610c43565b91909101601d0192915050565b6000828210156114e8576114e86112c6565b500390565b60006114f93683610ecb565b92915050565b60008351611511818460208801610c43565b835190830190611525818360208801610c43565b600b60fa1b9101908152600101949350505050565b600063ffffffff80831681811415611554576115546112c6565b6001019392505050565b60008351611570818460208801610c43565b835190830190611584818360208801610c43565b605d60f81b9101908152600101949350505050565b600082198211156115ac576115ac6112c6565b500190565b6f113234b9b83630bcafba3cb832911d1160811b815281516000906115dd816010850160208701610c43565b61088b60f21b6010939091019283015250601201919050565b60008351611608818460208801610c43565b83519083019061161c818360208801610c43565b01949350505050565b6d113a3930b4ba2fba3cb832911d1160911b8152825160009061164f81600e850160208801610c43565b61088b60f21b600e9184019182015268113b30b63ab2911d1160b91b60108201528351611683816019840160208801610c43565b601160f91b60199290910191820152601a01949350505050565b634e487b7160e01b600052601260045260246000fd5b6000826116c2576116c261169d565b500490565b6000826116d6576116d661169d565b500690565b60008160001904831182151516156116f5576116f56112c6565b500290565b600081611709576117096112c6565b50600019019056fe4142434445464748494a4b4c4d4e4f505152535455565758595a6162636465666768696a6b6c6d6e6f707172737475767778797a303132333435363738392b2fa2646970667358221220849859f0e43c8e2eebd920e571ab68102c4dcccaa0e0b74715ecdf67e34186b464736f6c63430008090033",
  "linkReferences": {},
  "deployedLinkReferences": {}
}