{
  "_format": "hh-sol-artifact-1",
  "contractName": "GM2981",
  "sourceName": "contracts/common/contracts/GM2981.sol",
  "abi": [
    {
      "inputs": [
        {
          "internalType": "address",
          "name": "royaltyAddress_",
          "type": "address"
        },
        {
          "internalType": "uint16",
          "name": "royaltyPercentage_",
          "type": "uint16"
        }
      ],
      "stateMutability": "nonpayable",
      "type": "constructor"
    },
    {
      "inputs": [
        {
          "internalType": "uint256",
          "name": "tokenId",
          "type": "uint256"
        },
        {
          "internalType": "uint256",
          "name": "salePrice",
          "type": "uint256"
        }
      ],
      "name": "royaltyInfo",
      "outputs": [
        {
          "internalType": "address",
          "name": "receiver",
          "type": "address"
        },
        {
          "internalType": "uint256",
          "name": "royaltyAmount",
          "type": "uint256"
        }
      ],
      "stateMutability": "view",
      "type": "function"
    },
    {
      "inputs": [
        {
          "internalType": "bytes4",
          "name": "interfaceId",
          "type": "bytes4"
        }
      ],
      "name": "supportsInterface",
      "outputs": [
        {
          "internalType": "bool",
          "name": "",
          "type": "bool"
        }
      ],
      "stateMutability": "view",
      "type": "function"
    }
  ],
  "bytecode": "0x608060405234801561001057600080fd5b506040516102b03803806102b083398101604081905261002f91610062565b6000805461ffff909216600160a01b026001600160b01b03199092166001600160a01b03909316929092171790556100af565b6000806040838503121561007557600080fd5b82516001600160a01b038116811461008c57600080fd5b602084015190925061ffff811681146100a457600080fd5b809150509250929050565b6101f2806100be6000396000f3fe608060405234801561001057600080fd5b50600436106100365760003560e01c806301ffc9a71461003b5780632a55205a14610063575b600080fd5b61004e610049366004610121565b610095565b60405190151581526020015b60405180910390f35b61007661007136600461014b565b6100cc565b604080516001600160a01b03909316835260208301919091520161005a565b60006001600160e01b0319821663152a902d60e11b14806100c657506301ffc9a760e01b6001600160e01b03198316145b92915050565b6000806000546001600160a01b03811692506100f4908490600160a01b900461ffff166100fd565b90509250929050565b60006103e861011061ffff84168561016d565b61011a919061019a565b9392505050565b60006020828403121561013357600080fd5b81356001600160e01b03198116811461011a57600080fd5b6000806040838503121561015e57600080fd5b50508035926020909101359150565b600081600019048311821515161561019557634e487b7160e01b600052601160045260246000fd5b500290565b6000826101b757634e487b7160e01b600052601260045260246000fd5b50049056fea26469706673582212201ee84d805638689a08da36e2b63ef42c77079c1c61c7ff2e9d5648682445d5bf64736f6c63430008090033",
  "linkReferences": {},
  "deployedLinkReferences": {}
}