{
  "_format": "hh-sol-artifact-1",
  "contractName": "GM721",
  "sourceName": "contracts/common/contracts/GM721.sol",
  "abi": [
    {
      "inputs": [
        {
          "internalType": "string",
          "name": "name_",
          "type": "string"
        },
        {
          "internalType": "string",
          "name": "symbol_",
          "type": "string"
        }
      ],
      "stateMutability": "nonpayable",
      "type": "constructor"
    },
    {
      "anonymous": false,
      "inputs": [
        {
          "indexed": true,
          "internalType": "address",
          "name": "owner",
          "type": "address"
        },
        {
          "indexed": true,
          "internalType": "address",
          "name": "approved",
          "type": "address"
        },
        {
          "indexed": true,
          "internalType": "uint256",
          "name": "tokenId",
          "type": "uint256"
        }
      ],
      "name": "Approval",
      "type": "event"
    },
    {
      "anonymous": false,
      "inputs": [
        {
          "indexed": true,
          "internalType": "address",
          "name": "owner",
          "type": "address"
        },
        {
          "indexed": true,
          "internalType": "address",
          "name": "operator",
          "type": "address"
        },
        {
          "indexed": false,
          "internalType": "bool",
          "name": "approved",
          "type": "bool"
        }
      ],
      "name": "ApprovalForAll",
      "type": "event"
    },
    {
      "anonymous": false,
      "inputs": [
        {
          "indexed": true,
          "internalType": "address",
          "name": "from",
          "type": "address"
        },
        {
          "indexed": true,
          "internalType": "address",
          "name": "to",
          "type": "address"
        },
        {
          "indexed": true,
          "internalType": "uint256",
          "name": "tokenId",
          "type": "uint256"
        }
      ],
      "name": "Transfer",
      "type": "event"
    },
    {
      "inputs": [
        {
          "internalType": "address",
          "name": "to",
          "type": "address"
        },
        {
          "internalType": "uint256",
          "name": "tokenId",
          "type": "uint256"
        }
      ],
      "name": "approve",
      "outputs": [],
      "stateMutability": "nonpayable",
      "type": "function"
    },
    {
      "inputs": [
        {
          "internalType": "address",
          "name": "owner",
          "type": "address"
        }
      ],
      "name": "balanceOf",
      "outputs": [
        {
          "internalType": "uint256",
          "name": "",
          "type": "uint256"
        }
      ],
      "stateMutability": "view",
      "type": "function"
    },
    {
      "inputs": [
        {
          "internalType": "uint256",
          "name": "tokenId",
          "type": "uint256"
        }
      ],
      "name": "burn",
      "outputs": [],
      "stateMutability": "nonpayable",
      "type": "function"
    },
    {
      "inputs": [
        {
          "internalType": "uint256",
          "name": "tokenId",
          "type": "uint256"
        }
      ],
      "name": "getApproved",
      "outputs": [
        {
          "internalType": "address",
          "name": "",
          "type": "address"
        }
      ],
      "stateMutability": "view",
      "type": "function"
    },
    {
      "inputs": [
        {
          "internalType": "address",
          "name": "owner",
          "type": "address"
        },
        {
          "internalType": "address",
          "name": "operator",
          "type": "address"
        }
      ],
      "name": "isApprovedForAll",
      "outputs": [
        {
          "internalType": "bool",
          "name": "",
          "type": "bool"
        }
      ],
      "stateMutability": "view",
      "type": "function"
    },
    {
      "inputs": [],
      "name": "name",
      "outputs": [
        {
          "internalType": "string",
          "name": "",
          "type": "string"
        }
      ],
      "stateMutability": "view",
      "type": "function"
    },
    {
      "inputs": [
        {
          "internalType": "uint256",
          "name": "tokenId",
          "type": "uint256"
        }
      ],
      "name": "ownerOf",
      "outputs": [
        {
          "internalType": "address",
          "name": "",
          "type": "address"
        }
      ],
      "stateMutability": "view",
      "type": "function"
    },
    {
      "inputs": [
        {
          "internalType": "address",
          "name": "from",
          "type": "address"
        },
        {
          "internalType": "address",
          "name": "to",
          "type": "address"
        },
        {
          "internalType": "uint256",
          "name": "tokenId",
          "type": "uint256"
        }
      ],
      "name": "safeTransferFrom",
      "outputs": [],
      "stateMutability": "nonpayable",
      "type": "function"
    },
    {
      "inputs": [
        {
          "internalType": "address",
          "name": "from",
          "type": "address"
        },
        {
          "internalType": "address",
          "name": "to",
          "type": "address"
        },
        {
          "internalType": "uint256",
          "name": "tokenId",
          "type": "uint256"
        },
        {
          "internalType": "bytes",
          "name": "data",
          "type": "bytes"
        }
      ],
      "name": "safeTransferFrom",
      "outputs": [],
      "stateMutability": "nonpayable",
      "type": "function"
    },
    {
      "inputs": [
        {
          "internalType": "address",
          "name": "operator",
          "type": "address"
        },
        {
          "internalType": "bool",
          "name": "approved",
          "type": "bool"
        }
      ],
      "name": "setApprovalForAll",
      "outputs": [],
      "stateMutability": "nonpayable",
      "type": "function"
    },
    {
      "inputs": [
        {
          "internalType": "bytes4",
          "name": "interfaceId",
          "type": "bytes4"
        }
      ],
      "name": "supportsInterface",
      "outputs": [
        {
          "internalType": "bool",
          "name": "",
          "type": "bool"
        }
      ],
      "stateMutability": "view",
      "type": "function"
    },
    {
      "inputs": [],
      "name": "symbol",
      "outputs": [
        {
          "internalType": "string",
          "name": "",
          "type": "string"
        }
      ],
      "stateMutability": "view",
      "type": "function"
    },
    {
      "inputs": [
        {
          "internalType": "uint256",
          "name": "tokenId",
          "type": "uint256"
        }
      ],
      "name": "tokenURI",
      "outputs": [
        {
          "internalType": "string",
          "name": "",
          "type": "string"
        }
      ],
      "stateMutability": "view",
      "type": "function"
    },
    {
      "inputs": [],
      "name": "totalSupply",
      "outputs": [
        {
          "internalType": "uint256",
          "name": "",
          "type": "uint256"
        }
      ],
      "stateMutability": "view",
      "type": "function"
    },
    {
      "inputs": [
        {
          "internalType": "address",
          "name": "from",
          "type": "address"
        },
        {
          "internalType": "address",
          "name": "to",
          "type": "address"
        },
        {
          "internalType": "uint256",
          "name": "tokenId",
          "type": "uint256"
        }
      ],
      "name": "transferFrom",
      "outputs": [],
      "stateMutability": "nonpayable",
      "type": "function"
    }
  ],
  "bytecode": "0x608060405260006006553480156200001657600080fd5b5060405162001521380380620015218339810160408190526200003991620001e6565b8151829082906200005290600090602085019062000073565b5080516200006890600190602084019062000073565b50505050506200028d565b828054620000819062000250565b90600052602060002090601f016020900481019282620000a55760008555620000f0565b82601f10620000c057805160ff1916838001178555620000f0565b82800160010185558215620000f0579182015b82811115620000f0578251825591602001919060010190620000d3565b50620000fe92915062000102565b5090565b5b80821115620000fe576000815560010162000103565b634e487b7160e01b600052604160045260246000fd5b600082601f8301126200014157600080fd5b81516001600160401b03808211156200015e576200015e62000119565b604051601f8301601f19908116603f0116810190828211818310171562000189576200018962000119565b81604052838152602092508683858801011115620001a657600080fd5b600091505b83821015620001ca5785820183015181830184015290820190620001ab565b83821115620001dc5760008385830101525b9695505050505050565b60008060408385031215620001fa57600080fd5b82516001600160401b03808211156200021257600080fd5b62000220868387016200012f565b935060208501519150808211156200023757600080fd5b5062000246858286016200012f565b9150509250929050565b600181811c908216806200026557607f821691505b602082108114156200028757634e487b7160e01b600052602260045260246000fd5b50919050565b611284806200029d6000396000f3fe608060405234801561001057600080fd5b50600436106100f55760003560e01c806342966c6811610097578063a22cb46511610066578063a22cb465146101f0578063b88d4fde14610203578063c87b56dd14610216578063e985e9c51461022957600080fd5b806342966c68146101af5780636352211e146101c257806370a08231146101d557806395d89b41146101e857600080fd5b8063095ea7b3116100d3578063095ea7b31461016257806318160ddd1461017757806323b872dd1461018957806342842e0e1461019c57600080fd5b806301ffc9a7146100fa57806306fdde0314610122578063081812fc14610137575b600080fd5b61010d610108366004610d80565b610265565b60405190151581526020015b60405180910390f35b61012a6102b7565b6040516101199190610df5565b61014a610145366004610e08565b610349565b6040516001600160a01b039091168152602001610119565b610175610170366004610e3d565b610370565b005b6006545b604051908152602001610119565b610175610197366004610e67565b61048b565b6101756101aa366004610e67565b6104bd565b6101756101bd366004610e08565b6104d8565b61014a6101d0366004610e08565b6104f9565b61017b6101e3366004610ea3565b610559565b61012a6105df565b6101756101fe366004610ebe565b6105ee565b610175610211366004610f10565b6105fd565b61012a610224366004610e08565b610635565b61010d610237366004610fec565b6001600160a01b03918216600090815260056020908152604080832093909416825291909152205460ff1690565b60006001600160e01b031982166380ac58cd60e01b148061029657506001600160e01b03198216635b5e139f60e01b145b806102b157506301ffc9a760e01b6001600160e01b03198316145b92915050565b6060600080546102c69061101f565b80601f01602080910402602001604051908101604052809291908181526020018280546102f29061101f565b801561033f5780601f106103145761010080835404028352916020019161033f565b820191906000526020600020905b81548152906001019060200180831161032257829003601f168201915b5050505050905090565b6000610354826106a9565b506000908152600460205260409020546001600160a01b031690565b600061037b826104f9565b9050806001600160a01b0316836001600160a01b031614156103ee5760405162461bcd60e51b815260206004820152602160248201527f4552433732313a20617070726f76616c20746f2063757272656e74206f776e656044820152603960f91b60648201526084015b60405180910390fd5b336001600160a01b038216148061040a575061040a8133610237565b61047c5760405162461bcd60e51b815260206004820152603e60248201527f4552433732313a20617070726f76652063616c6c6572206973206e6f7420746f60448201527f6b656e206f776e6572206e6f7220617070726f76656420666f7220616c6c000060648201526084016103e5565b610486838361070b565b505050565b610496335b82610779565b6104b25760405162461bcd60e51b81526004016103e59061105a565b6104868383836107f8565b610486838383604051806020016040528060008152506105fd565b6104e181610994565b600680549060006104f1836110be565b919050555050565b6000818152600260205260408120546001600160a01b0316806102b15760405162461bcd60e51b8152602060048201526018602482015277115490cdcc8c4e881a5b9d985b1a59081d1bdad95b88125160421b60448201526064016103e5565b60006001600160a01b0382166105c35760405162461bcd60e51b815260206004820152602960248201527f4552433732313a2061646472657373207a65726f206973206e6f7420612076616044820152683634b21037bbb732b960b91b60648201526084016103e5565b506001600160a01b031660009081526003602052604090205490565b6060600180546102c69061101f565b6105f93383836109c2565b5050565b6106073383610779565b6106235760405162461bcd60e51b81526004016103e59061105a565b61062f84848484610a91565b50505050565b6060610640826106a9565b600061065760408051602081019091526000815290565b9050600081511161067757604051806020016040528060008152506106a2565b8061068184610ac4565b6040516020016106929291906110d5565b6040516020818303038152906040525b9392505050565b6000818152600260205260409020546001600160a01b03166107085760405162461bcd60e51b8152602060048201526018602482015277115490cdcc8c4e881a5b9d985b1a59081d1bdad95b88125160421b60448201526064016103e5565b50565b600081815260046020526040902080546001600160a01b0319166001600160a01b0384169081179091558190610740826104f9565b6001600160a01b03167f8c5be1e5ebec7d5bd14f71427d1e84f3dd0314c0f7b2291e5b200ac8c7c3b92560405160405180910390a45050565b600080610785836104f9565b9050806001600160a01b0316846001600160a01b031614806107cc57506001600160a01b0380821660009081526005602090815260408083209388168352929052205460ff165b806107f05750836001600160a01b03166107e584610349565b6001600160a01b0316145b949350505050565b826001600160a01b031661080b826104f9565b6001600160a01b03161461086f5760405162461bcd60e51b815260206004820152602560248201527f4552433732313a207472616e736665722066726f6d20696e636f72726563742060448201526437bbb732b960d91b60648201526084016103e5565b6001600160a01b0382166108d15760405162461bcd60e51b8152602060048201526024808201527f4552433732313a207472616e7366657220746f20746865207a65726f206164646044820152637265737360e01b60648201526084016103e5565b6108dc60008261070b565b6001600160a01b0383166000908152600360205260408120805460019290610905908490611104565b90915550506001600160a01b038216600090815260036020526040812080546001929061093390849061111b565b909155505060008181526002602052604080822080546001600160a01b0319166001600160a01b0386811691821790925591518493918716917fddf252ad1be2c89b69c2b068fc378daa952ba7f163c4a11628f55a4df523b3ef91a4505050565b61099d33610490565b6109b95760405162461bcd60e51b81526004016103e59061105a565b61070881610bc2565b816001600160a01b0316836001600160a01b03161415610a245760405162461bcd60e51b815260206004820152601960248201527f4552433732313a20617070726f766520746f2063616c6c65720000000000000060448201526064016103e5565b6001600160a01b03838116600081815260056020908152604080832094871680845294825291829020805460ff191686151590811790915591519182527f17307eab39ab6107e8899845ad3d59bd9653f200f220920489ca2b5937696c31910160405180910390a3505050565b610a9c8484846107f8565b610aa884848484610c5d565b61062f5760405162461bcd60e51b81526004016103e590611133565b606081610ae85750506040805180820190915260018152600360fc1b602082015290565b8160005b8115610b125780610afc81611185565b9150610b0b9050600a836111b6565b9150610aec565b60008167ffffffffffffffff811115610b2d57610b2d610efa565b6040519080825280601f01601f191660200182016040528015610b57576020820181803683370190505b5090505b84156107f057610b6c600183611104565b9150610b79600a866111ca565b610b8490603061111b565b60f81b818381518110610b9957610b996111de565b60200101906001600160f81b031916908160001a905350610bbb600a866111b6565b9450610b5b565b6000610bcd826104f9565b9050610bda60008361070b565b6001600160a01b0381166000908152600360205260408120805460019290610c03908490611104565b909155505060008281526002602052604080822080546001600160a01b0319169055518391906001600160a01b038416907fddf252ad1be2c89b69c2b068fc378daa952ba7f163c4a11628f55a4df523b3ef908390a45050565b60006001600160a01b0384163b15610d5f57604051630a85bd0160e11b81526001600160a01b0385169063150b7a0290610ca19033908990889088906004016111f4565b602060405180830381600087803b158015610cbb57600080fd5b505af1925050508015610ceb575060408051601f3d908101601f19168201909252610ce891810190611231565b60015b610d45573d808015610d19576040519150601f19603f3d011682016040523d82523d6000602084013e610d1e565b606091505b508051610d3d5760405162461bcd60e51b81526004016103e590611133565b805181602001fd5b6001600160e01b031916630a85bd0160e11b1490506107f0565b506001949350505050565b6001600160e01b03198116811461070857600080fd5b600060208284031215610d9257600080fd5b81356106a281610d6a565b60005b83811015610db8578181015183820152602001610da0565b8381111561062f5750506000910152565b60008151808452610de1816020860160208601610d9d565b601f01601f19169290920160200192915050565b6020815260006106a26020830184610dc9565b600060208284031215610e1a57600080fd5b5035919050565b80356001600160a01b0381168114610e3857600080fd5b919050565b60008060408385031215610e5057600080fd5b610e5983610e21565b946020939093013593505050565b600080600060608486031215610e7c57600080fd5b610e8584610e21565b9250610e9360208501610e21565b9150604084013590509250925092565b600060208284031215610eb557600080fd5b6106a282610e21565b60008060408385031215610ed157600080fd5b610eda83610e21565b915060208301358015158114610eef57600080fd5b809150509250929050565b634e487b7160e01b600052604160045260246000fd5b60008060008060808587031215610f2657600080fd5b610f2f85610e21565b9350610f3d60208601610e21565b925060408501359150606085013567ffffffffffffffff80821115610f6157600080fd5b818701915087601f830112610f7557600080fd5b813581811115610f8757610f87610efa565b604051601f8201601f19908116603f01168101908382118183101715610faf57610faf610efa565b816040528281528a6020848701011115610fc857600080fd5b82602086016020830137600060208483010152809550505050505092959194509250565b60008060408385031215610fff57600080fd5b61100883610e21565b915061101660208401610e21565b90509250929050565b600181811c9082168061103357607f821691505b6020821081141561105457634e487b7160e01b600052602260045260246000fd5b50919050565b6020808252602e908201527f4552433732313a2063616c6c6572206973206e6f7420746f6b656e206f776e6560408201526d1c881b9bdc88185c1c1c9bdd995960921b606082015260800190565b634e487b7160e01b600052601160045260246000fd5b6000816110cd576110cd6110a8565b506000190190565b600083516110e7818460208801610d9d565b8351908301906110fb818360208801610d9d565b01949350505050565b600082821015611116576111166110a8565b500390565b6000821982111561112e5761112e6110a8565b500190565b60208082526032908201527f4552433732313a207472616e7366657220746f206e6f6e20455243373231526560408201527131b2b4bb32b91034b6b83632b6b2b73a32b960711b606082015260800190565b6000600019821415611199576111996110a8565b5060010190565b634e487b7160e01b600052601260045260246000fd5b6000826111c5576111c56111a0565b500490565b6000826111d9576111d96111a0565b500690565b634e487b7160e01b600052603260045260246000fd5b6001600160a01b038581168252841660208201526040810183905260806060820181905260009061122790830184610dc9565b9695505050505050565b60006020828403121561124357600080fd5b81516106a281610d6a56fea26469706673582212206be84738887dfe6deb171cca8582e968988445a122292e936ddaca4c5afb050864736f6c63430008090033",
  "linkReferences": {},
  "deployedLinkReferences": {}
}