{
  "_format": "hh-sol-artifact-1",
  "contractName": "TestGMDynamicSC",
  "sourceName": "contracts/common/tests/contracts/TestGMDynamicSC.sol",
  "abi": [
    {
      "inputs": [
        {
          "internalType": "string",
          "name": "baseURI",
          "type": "string"
        },
        {
          "internalType": "string",
          "name": "description",
          "type": "string"
        }
      ],
      "stateMutability": "nonpayable",
      "type": "constructor"
    },
    {
      "inputs": [
        {
          "internalType": "uint256",
          "name": "tokenId",
          "type": "uint256"
        }
      ],
      "name": "AlreadyHaveBaseAttributes",
      "type": "error"
    },
    {
      "inputs": [
        {
          "internalType": "uint256",
          "name": "tokenId",
          "type": "uint256"
        },
        {
          "internalType": "string",
          "name": "imagePath",
          "type": "string"
        }
      ],
      "name": "CannotSetImageWithoutBaseAttributes",
      "type": "error"
    },
    {
      "inputs": [],
      "name": "DefaultImagePathRequired",
      "type": "error"
    },
    {
      "inputs": [
        {
          "internalType": "address",
          "name": "addressSent",
          "type": "address"
        },
        {
          "internalType": "bytes4",
          "name": "interfaceRequired",
          "type": "bytes4"
        }
      ],
      "name": "InterfaceIsNotImplemented",
      "type": "error"
    },
    {
      "inputs": [
        {
          "internalType": "string",
          "name": "method",
          "type": "string"
        }
      ],
      "name": "MethodNotSupported",
      "type": "error"
    },
    {
      "inputs": [],
      "name": "ZeroAddressNotSupported",
      "type": "error"
    },
    {
      "inputs": [
        {
          "internalType": "address",
          "name": "to",
          "type": "address"
        },
        {
          "internalType": "uint256",
          "name": "tokenId",
          "type": "uint256"
        }
      ],
      "name": "canTokenBeTransferred",
      "outputs": [
        {
          "internalType": "bool",
          "name": "",
          "type": "bool"
        }
      ],
      "stateMutability": "view",
      "type": "function"
    },
    {
      "inputs": [],
      "name": "getDynamicSCAddresses",
      "outputs": [
        {
          "internalType": "address[2]",
          "name": "",
          "type": "address[2]"
        }
      ],
      "stateMutability": "view",
      "type": "function"
    },
    {
      "inputs": [],
      "name": "getRoyaltiesData",
      "outputs": [
        {
          "components": [
            {
              "internalType": "address",
              "name": "recipientAddress",
              "type": "address"
            },
            {
              "internalType": "uint16",
              "name": "feePercentage",
              "type": "uint16"
            }
          ],
          "internalType": "struct Royalty",
          "name": "",
          "type": "tuple"
        }
      ],
      "stateMutability": "view",
      "type": "function"
    },
    {
      "inputs": [
        {
          "internalType": "address",
          "name": "newAttributesControllerSC",
          "type": "address"
        }
      ],
      "name": "setAttributesControllerSC",
      "outputs": [],
      "stateMutability": "nonpayable",
      "type": "function"
    },
    {
      "inputs": [
        {
          "internalType": "uint256",
          "name": "tokenId",
          "type": "uint256"
        },
        {
          "components": [
            {
              "internalType": "string",
              "name": "displayType",
              "type": "string"
            },
            {
              "internalType": "string",
              "name": "traitType",
              "type": "string"
            },
            {
              "internalType": "string",
              "name": "value",
              "type": "string"
            }
          ],
          "internalType": "struct Attribute[]",
          "name": "newBaseAttributes",
          "type": "tuple[]"
        }
      ],
      "name": "setBaseAttributes",
      "outputs": [],
      "stateMutability": "nonpayable",
      "type": "function"
    },
    {
      "inputs": [
        {
          "internalType": "string",
          "name": "newDefaultImagePath",
          "type": "string"
        }
      ],
      "name": "setDefaultImagePath",
      "outputs": [],
      "stateMutability": "nonpayable",
      "type": "function"
    },
    {
      "inputs": [
        {
          "internalType": "uint256",
          "name": "tokenId",
          "type": "uint256"
        },
        {
          "internalType": "string",
          "name": "newImageURL",
          "type": "string"
        }
      ],
      "name": "setImagePath",
      "outputs": [],
      "stateMutability": "nonpayable",
      "type": "function"
    },
    {
      "inputs": [
        {
          "internalType": "address",
          "name": "newTransferControllerSC",
          "type": "address"
        }
      ],
      "name": "setTransferControllerSC",
      "outputs": [],
      "stateMutability": "nonpayable",
      "type": "function"
    },
    {
      "inputs": [
        {
          "internalType": "uint256",
          "name": "tokenId",
          "type": "uint256"
        }
      ],
      "name": "tokenURI",
      "outputs": [
        {
          "internalType": "string",
          "name": "",
          "type": "string"
        }
      ],
      "stateMutability": "view",
      "type": "function"
    },
    {
      "inputs": [
        {
          "internalType": "address",
          "name": "to",
          "type": "address"
        },
        {
          "internalType": "uint256",
          "name": "tokenId",
          "type": "uint256"
        }
      ],
      "name": "transferBlockedToken",
      "outputs": [],
      "stateMutability": "nonpayable",
      "type": "function"
    },
    {
      "inputs": [
        {
          "internalType": "address",
          "name": "to",
          "type": "address"
        },
        {
          "internalType": "uint256",
          "name": "tokenId",
          "type": "uint256"
        }
      ],
      "name": "wasTransferred",
      "outputs": [
        {
          "internalType": "bool",
          "name": "",
          "type": "bool"
        }
      ],
      "stateMutability": "view",
      "type": "function"
    }
  ],
  "bytecode": "0x60e0604052620000ef602090811b620002fd176001600160401b03908116608081905262000132831b6200033117821660a08190526200013a90931b620003391790911660c0819052600780546001600160801b0319169092176801000000000000000090930292909217600160801b600160c01b031916600160801b9092029190911790553480156200009257600080fd5b506040516200233e3803806200233e833981016040819052620000b59162000424565b815182908290620000ce906004906020850190620002a4565b508051620000e4906006906020840190620002a4565b50505050506200065d565b6060600462000109836200018760201b6200037e1760201c565b6040516020016200011c929190620004e9565b6040516020818303038152906040529050919050565b600192915050565b604051637204585560e01b815260206004820152601460248201527f5472616e73666572426c6f636b6564546f6b656e000000000000000000000000604482015260640160405180910390fd5b606081620001ac5750506040805180820190915260018152600360fc1b602082015290565b8160005b8115620001dc5780620001c381620005b0565b9150620001d49050600a83620005e4565b9150620001b0565b6000816001600160401b03811115620001f957620001f96200034a565b6040519080825280601f01601f19166020018201604052801562000224576020820181803683370190505b5090505b84156200029c576200023c600183620005fb565b91506200024b600a8662000615565b620002589060306200062c565b60f81b81838151811062000270576200027062000647565b60200101906001600160f81b031916908160001a90535062000294600a86620005e4565b945062000228565b949350505050565b828054620002b2906200048e565b90600052602060002090601f016020900481019282620002d6576000855562000321565b82601f10620002f157805160ff191683800117855562000321565b8280016001018555821562000321579182015b828111156200032157825182559160200191906001019062000304565b506200032f92915062000333565b5090565b5b808211156200032f576000815560010162000334565b634e487b7160e01b600052604160045260246000fd5b60005b838110156200037d57818101518382015260200162000363565b838111156200038d576000848401525b50505050565b600082601f830112620003a557600080fd5b81516001600160401b0380821115620003c257620003c26200034a565b604051601f8301601f19908116603f01168101908282118183101715620003ed57620003ed6200034a565b816040528381528660208588010111156200040757600080fd5b6200041a84602083016020890162000360565b9695505050505050565b600080604083850312156200043857600080fd5b82516001600160401b03808211156200045057600080fd5b6200045e8683870162000393565b935060208501519150808211156200047557600080fd5b50620004848582860162000393565b9150509250929050565b600181811c90821680620004a357607f821691505b60208210811415620004c557634e487b7160e01b600052602260045260246000fd5b50919050565b60008151620004df81856020860162000360565b9290920192915050565b600080845481600182811c9150808316806200050657607f831692505b60208084108214156200052757634e487b7160e01b86526022600452602486fd5b8180156200053e576001811462000550576200057f565b60ff198616895284890196506200057f565b60008b81526020902060005b86811015620005775781548b8201529085019083016200055c565b505084890196505b505050505050620005918185620004cb565b95945050505050565b634e487b7160e01b600052601160045260246000fd5b6000600019821415620005c757620005c76200059a565b5060010190565b634e487b7160e01b600052601260045260246000fd5b600082620005f657620005f6620005ce565b500490565b6000828210156200061057620006106200059a565b500390565b600082620006275762000627620005ce565b500690565b600082198211156200064257620006426200059a565b500190565b634e487b7160e01b600052603260045260246000fd5b611cd1806200066d6000396000f3fe608060405234801561001057600080fd5b50600436106100a95760003560e01c80636eaea8fd116100715780636eaea8fd1461014a5780638d8f3e701461015f578063a7638dff14610172578063ad7f795714610185578063c87b56dd146101b5578063e5343da6146101d557600080fd5b80633008cdc6146100ae57806337e57dd2146100d6578063389ca597146100eb5780634c557652146100fe57806357f1b33114610137575b600080fd5b6100c16100bc3660046112ef565b6101e8565b60405190151581526020015b60405180910390f35b6100e96100e4366004611319565b610220565b005b6100e96100f93660046112ef565b61022c565b6100c161010c3660046112ef565b6001600160a01b03919091166000908152600860209081526040808320938352929052205460ff1690565b6100e9610145366004611442565b610286565b610152610294565b6040516100cd9190611580565b6100e961016d366004611319565b6102c3565b6100e96101803660046115ba565b6102cc565b60408051808201825260008082526020918201819052825180840184528181529182015290516100cd919061162b565b6101c86101c336600461164f565b6102d8565b6040516100cd91906116c4565b6100e96101e33660046116d7565b6102f3565b60006102178383600760000160089054906101000a9004801561119e02176001600160401b031663ffffffff16565b90505b92915050565b61022981610483565b50565b816001600160a01b0381166102545760405163072d046f60e21b815260040160405180910390fd5b6102818383600760000160109054906101000a9004801561119e02176001600160401b031663ffffffff16565b505050565b61029082826105d4565b5050565b61029c6111a8565b50604080518082019091526002546001600160a01b03908116825260035416602082015290565b61022981610659565b610281600583836111c6565b60075460609061021a908390801561119e021763ffffffff16565b6102908282610768565b6060600461030a8361037e565b60405160200161031b929190611774565b6040516020818303038152906040529050919050565b600192915050565b604051637204585560e01b81526020600482015260146024820152732a3930b739b332b9213637b1b5b2b22a37b5b2b760611b60448201526064015b60405180910390fd5b6060816103a25750506040805180820190915260018152600360fc1b602082015290565b8160005b81156103cc57806103b681611831565b91506103c59050600a83611862565b91506103a6565b6000816001600160401b038111156103e6576103e6611334565b6040519080825280601f01601f191660200182016040528015610410576020820181803683370190505b5090505b841561047b57610425600183611876565b9150610432600a8661188d565b61043d9060306118a1565b60f81b818381518110610452576104526118b9565b60200101906001600160f81b031916908160001a905350610474600a86611862565b9450610414565b949350505050565b806001600160a01b0381166104ab5760405163072d046f60e21b815260040160405180910390fd5b6040516301ffc9a760e01b8152638dbb1a1360e01b6004820181905283916001600160a01b038316906301ffc9a79060240160206040518083038186803b1580156104f557600080fd5b505afa158015610509573d6000803e3d6000fd5b505050506040513d601f19601f8201168201806040525081019061052d91906118cf565b61054e57818160405163201e6d6560e11b81526004016103759291906118f8565b5050600380546001600160a01b039093166001600160a01b031990931692909217909155506007805461081c6001600160401b03908116600160801b0267ffffffffffffffff60801b196107919290921668010000000000000000029190911677ffffffffffffffffffffffffffffffff00000000000000001990921691909117179055565b6105de82826108e6565b600082815260208190526040908190209051631ca2a00b60e11b815273__$76aaa174a4a37c573814e3ab8089977c33$__91633945401691610625919085906004016119b1565b60006040518083038186803b15801561063d57600080fd5b505af4158015610651573d6000803e3d6000fd5b505050505050565b806001600160a01b0381166106815760405163072d046f60e21b815260040160405180910390fd5b6040516301ffc9a760e01b8152638710386160e01b6004820181905283916001600160a01b038316906301ffc9a79060240160206040518083038186803b1580156106cb57600080fd5b505afa1580156106df573d6000803e3d6000fd5b505050506040513d601f19601f8201168201806040525081019061070391906118cf565b61072457818160405163201e6d6560e11b81526004016103759291906118f8565b61072d84610916565b5050600280546001600160a01b0319166001600160a01b039390931692909217909155506007805467ffffffffffffffff1916610944179055565b6107728282611044565b600082815260016020908152604090912082516102819284019061124a565b60035460405163148740bd60e01b81523060048201526001600160a01b03848116602483015260448201849052600092169063148740bd9060640160206040518083038186803b1580156107e457600080fd5b505afa1580156107f8573d6000803e3d6000fd5b505050506040513d601f19601f8201168201806040525081019061021791906118cf565b6003546040516366ec25e160e11b8152306004820152602481018390526001600160a01b039091169063cdd84bc29060440160006040518083038186803b15801561086657600080fd5b505afa15801561087a573d6000803e3d6000fd5b505050506108888282611074565b600354604051631539045b60e21b8152306004820152602481018390526001600160a01b03909116906354e4116c9060440160006040518083038186803b1580156108d257600080fd5b505afa158015610651573d6000803e3d6000fd5b6000828152602081905260409020541561029057604051634185200960e11b815260048101839052602401610375565b600580546109239061171d565b15159050610229576040516308f2753b60e41b815260040160405180910390fd5b60606000610951836102fd565b60008481526020818152604080832080548251818502810185019093528083529495509293909291849084015b82821015610b6657838290600052602060002090600302016040518060600160405290816000820180546109b19061171d565b80601f01602080910402602001604051908101604052809291908181526020018280546109dd9061171d565b8015610a2a5780601f106109ff57610100808354040283529160200191610a2a565b820191906000526020600020905b815481529060010190602001808311610a0d57829003601f168201915b50505050508152602001600182018054610a439061171d565b80601f0160208091040260200160405190810160405280929190818152602001828054610a6f9061171d565b8015610abc5780601f10610a9157610100808354040283529160200191610abc565b820191906000526020600020905b815481529060010190602001808311610a9f57829003601f168201915b50505050508152602001600282018054610ad59061171d565b80601f0160208091040260200160405190810160405280929190818152602001828054610b019061171d565b8015610b4e5780601f10610b2357610100808354040283529160200191610b4e565b820191906000526020600020905b815481529060010190602001808311610b3157829003601f168201915b5050505050815250508152602001906001019061097e565b505050509050805160001461103d57600254604051638710386160e01b8152306004820152602481018690526000916001600160a01b03169063871038619060440160006040518083038186803b158015610bc057600080fd5b505afa158015610bd4573d6000803e3d6000fd5b505050506040513d6000823e601f3d908101601f19168201604052610bfc9190810190611a0f565b805190915015610ea85760008581526020818152604080832080548251818502810185019093528083529193909284015b82821015610e155783829060005260206000209060030201604051806060016040529081600082018054610c609061171d565b80601f0160208091040260200160405190810160405280929190818152602001828054610c8c9061171d565b8015610cd95780601f10610cae57610100808354040283529160200191610cd9565b820191906000526020600020905b815481529060010190602001808311610cbc57829003601f168201915b50505050508152602001600182018054610cf29061171d565b80601f0160208091040260200160405190810160405280929190818152602001828054610d1e9061171d565b8015610d6b5780601f10610d4057610100808354040283529160200191610d6b565b820191906000526020600020905b815481529060010190602001808311610d4e57829003601f168201915b50505050508152602001600282018054610d849061171d565b80601f0160208091040260200160405190810160405280929190818152602001828054610db09061171d565b8015610dfd5780601f10610dd257610100808354040283529160200191610dfd565b820191906000526020600020905b815481529060010190602001808311610de057829003601f168201915b50505050508152505081526020019060010190610c2d565b5050604051630e914a8160e41b815273__$76aaa174a4a37c573814e3ab8089977c33$__9363e914a8109350610e519250908590600401611b41565b60006040518083038186803b158015610e6957600080fd5b505af4158015610e7d573d6000803e3d6000fd5b505050506040513d6000823e601f3d908101601f19168201604052610ea59190810190611a0f565b91505b6000610eb3866110aa565b90506000610ec08761037e565b604051602001610ed09190611b66565b60408051601f198184030181528282019091526000808352602083018190529092505060006040518060a0016040528060068054610f0d9061171d565b80601f0160208091040260200160405190810160405280929190818152602001828054610f399061171d565b8015610f865780601f10610f5b57610100808354040283529160200191610f86565b820191906000526020600020905b815481529060010190602001808311610f6957829003601f168201915b505050505081526020018581526020018481526020018781526020018381525090508073__$76aaa174a4a37c573814e3ab8089977c33$__6355edf07290916040518263ffffffff1660e01b8152600401610fe19190611b8f565b60006040518083038186803b158015610ff957600080fd5b505af415801561100d573d6000803e3d6000fd5b505050506040513d6000823e601f3d908101601f191682016040526110359190810190611c38565b965050505050505b5092915050565b6000828152602081905260409020546102905781816040516331e5c31960e01b8152600401610375929190611c6c565b6001600160a01b03821660009081526008602090815260408083208484529091529020805460ff19166001179055610290828282565b6060600060056110b98461037e565b6040516020016110ca929190611774565b60408051601f1981840301815291815260008581526001602052908120805492935090916110f79061171d565b9050111561021a57600083815260016020526040902080546111189061171d565b80601f01602080910402602001604051908101604052809291908181526020018280546111449061171d565b80156111915780601f1061116657610100808354040283529160200191611191565b820191906000526020600020905b81548152906001019060200180831161117457829003601f168201915b5050505050905092915050565b6111a6611c85565b565b60405180604001604052806002906020820280368337509192915050565b8280546111d29061171d565b90600052602060002090601f0160209004810192826111f4576000855561123a565b82601f1061120d5782800160ff1982351617855561123a565b8280016001018555821561123a579182015b8281111561123a57823582559160200191906001019061121f565b506112469291506112be565b5090565b8280546112569061171d565b90600052602060002090601f016020900481019282611278576000855561123a565b82601f1061129157805160ff191683800117855561123a565b8280016001018555821561123a579182015b8281111561123a5782518255916020019190600101906112a3565b5b8082111561124657600081556001016112bf565b80356001600160a01b03811681146112ea57600080fd5b919050565b6000806040838503121561130257600080fd5b61130b836112d3565b946020939093013593505050565b60006020828403121561132b57600080fd5b610217826112d3565b634e487b7160e01b600052604160045260246000fd5b604051606081016001600160401b038111828210171561136c5761136c611334565b60405290565b604051601f8201601f191681016001600160401b038111828210171561139a5761139a611334565b604052919050565b60006001600160401b038211156113bb576113bb611334565b5060051b60200190565b60006001600160401b038211156113de576113de611334565b50601f01601f191660200190565b600082601f8301126113fd57600080fd5b813561141061140b826113c5565b611372565b81815284602083860101111561142557600080fd5b816020850160208301376000918101602001919091529392505050565b6000806040838503121561145557600080fd5b823591506020808401356001600160401b038082111561147457600080fd5b818601915086601f83011261148857600080fd5b813561149661140b826113a2565b81815260059190911b830184019084810190898311156114b557600080fd5b8585015b8381101561156f578035858111156114d15760008081fd5b86016060818d03601f19018113156114e95760008081fd5b6114f161134a565b89830135888111156115035760008081fd5b6115118f8c838701016113ec565b8252506040830135888111156115275760008081fd5b6115358f8c838701016113ec565b828c01525090820135908782111561154d5760008081fd5b61155b8e8b848601016113ec565b6040820152855250509186019186016114b9565b508096505050505050509250929050565b60408101818360005b60028110156115b15781516001600160a01b0316835260209283019290910190600101611589565b50505092915050565b600080602083850312156115cd57600080fd5b82356001600160401b03808211156115e457600080fd5b818501915085601f8301126115f857600080fd5b81358181111561160757600080fd5b86602082850101111561161957600080fd5b60209290920196919550909350505050565b81516001600160a01b0316815260208083015161ffff16908201526040810161021a565b60006020828403121561166157600080fd5b5035919050565b60005b8381101561168357818101518382015260200161166b565b83811115611692576000848401525b50505050565b600081518084526116b0816020860160208601611668565b601f01601f19169290920160200192915050565b6020815260006102176020830184611698565b600080604083850312156116ea57600080fd5b8235915060208301356001600160401b0381111561170757600080fd5b611713858286016113ec565b9150509250929050565b600181811c9082168061173157607f821691505b6020821081141561175257634e487b7160e01b600052602260045260246000fd5b50919050565b6000815161176a818560208601611668565b9290920192915050565b600080845481600182811c91508083168061179057607f831692505b60208084108214156117b057634e487b7160e01b86526022600452602486fd5b8180156117c457600181146117d557611802565b60ff19861689528489019650611802565b60008b81526020902060005b868110156117fa5781548b8201529085019083016117e1565b505084890196505b5050505050506118128185611758565b95945050505050565b634e487b7160e01b600052601160045260246000fd5b60006000198214156118455761184561181b565b5060010190565b634e487b7160e01b600052601260045260246000fd5b6000826118715761187161184c565b500490565b6000828210156118885761188861181b565b500390565b60008261189c5761189c61184c565b500690565b600082198211156118b4576118b461181b565b500190565b634e487b7160e01b600052603260045260246000fd5b6000602082840312156118e157600080fd5b815180151581146118f157600080fd5b9392505050565b6001600160a01b039290921682526001600160e01b031916602082015260400190565b600081518084526020808501808196508360051b8101915082860160005b858110156119a457828403895281516060815181875261195b82880182611698565b91505086820151868203888801526119738282611698565b915050604080830151925086820381880152506119908183611698565b9a87019a9550505090840190600101611939565b5091979650505050505050565b82815260406020820152600061047b604083018461191b565b600082601f8301126119db57600080fd5b81516119e961140b826113c5565b8181528460208386010111156119fe57600080fd5b61047b826020830160208701611668565b60006020808385031215611a2257600080fd5b82516001600160401b0380821115611a3957600080fd5b818501915085601f830112611a4d57600080fd5b8151611a5b61140b826113a2565b81815260059190911b83018401908481019088831115611a7a57600080fd5b8585015b83811015611b3457805185811115611a965760008081fd5b86016060818c03601f1901811315611aae5760008081fd5b611ab661134a565b8983015188811115611ac85760008081fd5b611ad68e8c838701016119ca565b82525060408084015189811115611aed5760008081fd5b611afb8f8d838801016119ca565b838d015250918301519188831115611b135760008081fd5b611b218e8c858701016119ca565b9082015285525050918601918601611a7e565b5098975050505050505050565b604081526000611b54604083018561191b565b8281036020840152611812818561191b565b602360f81b815260008251611b82816001850160208701611668565b9190910160010192915050565b602081526000825160c06020840152611bab60e0840182611698565b90506020840151601f1980858403016040860152611bc98383611698565b92506040860151915080858403016060860152611be68383611698565b9250606086015191508085840301608086015250611c04828261191b565b9150506080840151611c3060a085018280516001600160a01b0316825260209081015161ffff16910152565b509392505050565b600060208284031215611c4a57600080fd5b81516001600160401b03811115611c6057600080fd5b61047b848285016119ca565b82815260406020820152600061047b6040830184611698565b634e487b7160e01b600052605160045260246000fdfea26469706673582212204caaa16c6a62faaa3e9dfcf18e3d68f47a2c3c9c890548e37a9596b3468f64b964736f6c63430008090033",
  "linkReferences": {
    "contracts/common/libraries/DynamicMetadata.sol": {
      "DynamicMetadata": [
        {
          "length": 20,
          "start": 3177
        },
        {
          "length": 20,
          "start": 5267
        },
        {
          "length": 20,
          "start": 5656
        }
      ]
    }
  },
  "deployedLinkReferences": {
    "contracts/common/libraries/DynamicMetadata.sol": {
      "DynamicMetadata": [
        {
          "length": 20,
          "start": 1532
        },
        {
          "length": 20,
          "start": 3622
        },
        {
          "length": 20,
          "start": 4011
        }
      ]
    }
  }
}