{
  "_format": "hh-sol-artifact-1",
  "contractName": "TestGMVRFConsumer",
  "sourceName": "contracts/common/tests/contracts/TestGMVRFConsumer.sol",
  "abi": [
    {
      "inputs": [
        {
          "internalType": "uint64",
          "name": "chainLinkSubsId_",
          "type": "uint64"
        },
        {
          "internalType": "address",
          "name": "vrfCoordinator",
          "type": "address"
        },
        {
          "internalType": "bytes32",
          "name": "chainLinkKeyHash_",
          "type": "bytes32"
        }
      ],
      "stateMutability": "nonpayable",
      "type": "constructor"
    },
    {
      "inputs": [
        {
          "internalType": "address",
          "name": "have",
          "type": "address"
        },
        {
          "internalType": "address",
          "name": "want",
          "type": "address"
        }
      ],
      "name": "OnlyCoordinatorCanFulfill",
      "type": "error"
    },
    {
      "anonymous": false,
      "inputs": [
        {
          "indexed": true,
          "internalType": "address",
          "name": "previousOwner",
          "type": "address"
        },
        {
          "indexed": true,
          "internalType": "address",
          "name": "newOwner",
          "type": "address"
        }
      ],
      "name": "OwnershipTransferred",
      "type": "event"
    },
    {
      "anonymous": false,
      "inputs": [],
      "name": "SeedNumberAssigned",
      "type": "event"
    },
    {
      "inputs": [],
      "name": "getChainLinkKeyHash",
      "outputs": [
        {
          "internalType": "bytes32",
          "name": "",
          "type": "bytes32"
        }
      ],
      "stateMutability": "view",
      "type": "function"
    },
    {
      "inputs": [],
      "name": "getChainLinkSeedNumber",
      "outputs": [
        {
          "internalType": "uint256",
          "name": "",
          "type": "uint256"
        }
      ],
      "stateMutability": "view",
      "type": "function"
    },
    {
      "inputs": [],
      "name": "getChainLinkSubsId",
      "outputs": [
        {
          "internalType": "uint256",
          "name": "",
          "type": "uint256"
        }
      ],
      "stateMutability": "view",
      "type": "function"
    },
    {
      "inputs": [],
      "name": "getVRFCoordinator",
      "outputs": [
        {
          "internalType": "address",
          "name": "",
          "type": "address"
        }
      ],
      "stateMutability": "view",
      "type": "function"
    },
    {
      "inputs": [],
      "name": "owner",
      "outputs": [
        {
          "internalType": "address",
          "name": "",
          "type": "address"
        }
      ],
      "stateMutability": "view",
      "type": "function"
    },
    {
      "inputs": [
        {
          "internalType": "uint256",
          "name": "subId",
          "type": "uint256"
        },
        {
          "internalType": "uint256[]",
          "name": "randomWords",
          "type": "uint256[]"
        }
      ],
      "name": "publicFulfillRandomWords",
      "outputs": [],
      "stateMutability": "nonpayable",
      "type": "function"
    },
    {
      "inputs": [
        {
          "internalType": "uint256",
          "name": "requestId",
          "type": "uint256"
        },
        {
          "internalType": "uint256[]",
          "name": "randomWords",
          "type": "uint256[]"
        }
      ],
      "name": "rawFulfillRandomWords",
      "outputs": [],
      "stateMutability": "nonpayable",
      "type": "function"
    },
    {
      "inputs": [],
      "name": "renounceOwnership",
      "outputs": [],
      "stateMutability": "nonpayable",
      "type": "function"
    },
    {
      "inputs": [],
      "name": "requestRandomWords",
      "outputs": [],
      "stateMutability": "nonpayable",
      "type": "function"
    },
    {
      "inputs": [
        {
          "internalType": "address",
          "name": "newOwner",
          "type": "address"
        }
      ],
      "name": "transferOwnership",
      "outputs": [],
      "stateMutability": "nonpayable",
      "type": "function"
    }
  ],
  "bytecode": "0x60a060405234801561001057600080fd5b5060405161074938038061074983398101604081905261002f916100f0565b6001600160a01b038216608052828282610048336100a0565b600355600480546001600160401b039093166001600160401b031990931692909217909155600280546001600160a01b039092166001600160a01b03199283168117909155600180549092161790555061014b915050565b600080546001600160a01b038381166001600160a01b0319831681178455604051919092169283917f8be0079c531659141344cd1fd0a4f28419497f9722a3daafe3b4186f6b6457e09190a35050565b60008060006060848603121561010557600080fd5b83516001600160401b038116811461011c57600080fd5b60208501519093506001600160a01b038116811461013957600080fd5b80925050604084015190509250925092565b6080516105dc61016d6000396000818161016001526101a201526105dc6000f3fe608060405234801561001057600080fd5b506004361061009e5760003560e01c80638da5cb5b116100665780638da5cb5b146100fc578063a378f37114610121578063e0c8628914610132578063ebb294e01461013a578063f2fde38b1461014257600080fd5b806305572f7a146100a35780631fe543e3146100c45780634ec05157146100d9578063715018a6146100ec578063764d8a44146100f4575b600080fd5b60045467ffffffffffffffff165b6040519081526020015b60405180910390f35b6100d76100d236600461047d565b610155565b005b6100d76100e736600461047d565b6101d4565b6100d76101e2565b6003546100b1565b6000546001600160a01b03165b6040516001600160a01b0390911681526020016100bb565b6002546001600160a01b0316610109565b6100d76101f6565b6005546100b1565b6100d7610150366004610547565b6102f9565b336001600160a01b037f000000000000000000000000000000000000000000000000000000000000000016146101d45760405163073e64fd60e21b81523360048201526001600160a01b037f00000000000000000000000000000000000000000000000000000000000000001660248201526044015b60405180910390fd5b6101de828261036f565b5050565b6101ea6103bd565b6101f46000610417565b565b6101fe6103bd565b600554156102475760405162461bcd60e51b815260206004820152601660248201527514d95959139d5b58995c88185b1c9958591e481cd95d60521b60448201526064016101cb565b6001805460038054600480546040516305d3b1d360e41b81529182019290925267ffffffffffffffff90911660248201526044810191909152620186a0606482015260848101929092526001600160a01b031690635d3b1d309060a401602060405180830381600087803b1580156102be57600080fd5b505af11580156102d2573d6000803e3d6000fd5b505050506040513d601f19601f820116820180604052508101906102f69190610577565b50565b6103016103bd565b6001600160a01b0381166103665760405162461bcd60e51b815260206004820152602660248201527f4f776e61626c653a206e6577206f776e657220697320746865207a65726f206160448201526564647265737360d01b60648201526084016101cb565b6102f681610417565b8060008151811061038257610382610590565b60209081029190910101516005556040517f365a99e4698f031fa444ac20a9ba82f8cffed68c5d1aab22a63c9db2822befae90600090a15050565b6000546001600160a01b031633146101f45760405162461bcd60e51b815260206004820181905260248201527f4f776e61626c653a2063616c6c6572206973206e6f7420746865206f776e657260448201526064016101cb565b600080546001600160a01b038381166001600160a01b0319831681178455604051919092169283917f8be0079c531659141344cd1fd0a4f28419497f9722a3daafe3b4186f6b6457e09190a35050565b634e487b7160e01b600052604160045260246000fd5b6000806040838503121561049057600080fd5b8235915060208084013567ffffffffffffffff808211156104b057600080fd5b818601915086601f8301126104c457600080fd5b8135818111156104d6576104d6610467565b8060051b604051601f19603f830116810181811085821117156104fb576104fb610467565b60405291825284820192508381018501918983111561051957600080fd5b938501935b828510156105375784358452938501939285019261051e565b8096505050505050509250929050565b60006020828403121561055957600080fd5b81356001600160a01b038116811461057057600080fd5b9392505050565b60006020828403121561058957600080fd5b5051919050565b634e487b7160e01b600052603260045260246000fdfea26469706673582212201b87af8f3c8e7a3e2419c7bf78ea130744eaabad80cd10713e3c7f7dd022b18364736f6c63430008090033",
  "linkReferences": {},
  "deployedLinkReferences": {}
}