{
  "_format": "hh-sol-artifact-1",
  "contractName": "TestGMAttributesController",
  "sourceName": "contracts/common/tests/contracts/TestGMAttributesController.sol",
  "abi": [
    {
      "inputs": [
        {
          "components": [
            {
              "internalType": "string",
              "name": "displayType",
              "type": "string"
            },
            {
              "internalType": "string",
              "name": "traitType",
              "type": "string"
            },
            {
              "internalType": "string",
              "name": "value",
              "type": "string"
            }
          ],
          "internalType": "struct Attribute[]",
          "name": "attributes",
          "type": "tuple[]"
        }
      ],
      "name": "appendDynamicAttributes",
      "outputs": [],
      "stateMutability": "nonpayable",
      "type": "function"
    },
    {
      "inputs": [
        {
          "internalType": "address",
          "name": "",
          "type": "address"
        },
        {
          "internalType": "uint256",
          "name": "",
          "type": "uint256"
        }
      ],
      "name": "getDynamicAttributes",
      "outputs": [
        {
          "components": [
            {
              "internalType": "string",
              "name": "displayType",
              "type": "string"
            },
            {
              "internalType": "string",
              "name": "traitType",
              "type": "string"
            },
            {
              "internalType": "string",
              "name": "value",
              "type": "string"
            }
          ],
          "internalType": "struct Attribute[]",
          "name": "attributes",
          "type": "tuple[]"
        }
      ],
      "stateMutability": "view",
      "type": "function"
    },
    {
      "inputs": [
        {
          "internalType": "bytes4",
          "name": "interfaceId",
          "type": "bytes4"
        }
      ],
      "name": "supportsInterface",
      "outputs": [
        {
          "internalType": "bool",
          "name": "",
          "type": "bool"
        }
      ],
      "stateMutability": "view",
      "type": "function"
    }
  ],
  "bytecode": "0x608060405234801561001057600080fd5b50610874806100206000396000f3fe608060405234801561001057600080fd5b50600436106100415760003560e01c806301ffc9a714610046578063462ba8e31461006e5780638710386114610083575b600080fd5b61005961005436600461035f565b6100a3565b60405190151581526020015b60405180910390f35b61008161007c366004610390565b6100da565b005b610096610091366004610405565b610147565b604051610065919061048a565b60006001600160e01b03198216638710386160e01b14806100d457506301ffc9a760e01b6001600160e01b03198316145b92915050565b60005b818110156101425760008383838181106100f9576100f961052b565b905060200281019061010b9190610541565b81546001810183556000928352602090922090916003020161012d828261070f565b5050808061013a90610815565b9150506100dd565b505050565b60606000805480602002602001604051908101604052809291908181526020016000905b82821015610353578382906000526020600020906003020160405180606001604052908160008201805461019e906105c5565b80601f01602080910402602001604051908101604052809291908181526020018280546101ca906105c5565b80156102175780601f106101ec57610100808354040283529160200191610217565b820191906000526020600020905b8154815290600101906020018083116101fa57829003601f168201915b50505050508152602001600182018054610230906105c5565b80601f016020809104026020016040519081016040528092919081815260200182805461025c906105c5565b80156102a95780601f1061027e576101008083540402835291602001916102a9565b820191906000526020600020905b81548152906001019060200180831161028c57829003601f168201915b505050505081526020016002820180546102c2906105c5565b80601f01602080910402602001604051908101604052809291908181526020018280546102ee906105c5565b801561033b5780601f106103105761010080835404028352916020019161033b565b820191906000526020600020905b81548152906001019060200180831161031e57829003601f168201915b5050505050815250508152602001906001019061016b565b50505050905092915050565b60006020828403121561037157600080fd5b81356001600160e01b03198116811461038957600080fd5b9392505050565b600080602083850312156103a357600080fd5b823567ffffffffffffffff808211156103bb57600080fd5b818501915085601f8301126103cf57600080fd5b8135818111156103de57600080fd5b8660208260051b85010111156103f357600080fd5b60209290920196919550909350505050565b6000806040838503121561041857600080fd5b82356001600160a01b038116811461042f57600080fd5b946020939093013593505050565b6000815180845260005b8181101561046357602081850181015186830182015201610447565b81811115610475576000602083870101525b50601f01601f19169290920160200192915050565b60006020808301818452808551808352604092508286019150828160051b87010184880160005b8381101561051d57603f198984030185528151606081518186526104d78287018261043d565b915050888201518582038a8701526104ef828261043d565b91505087820151915084810388860152610509818361043d565b9689019694505050908601906001016104b1565b509098975050505050505050565b634e487b7160e01b600052603260045260246000fd5b60008235605e1983360301811261055757600080fd5b9190910192915050565b6000808335601e1984360301811261057857600080fd5b83018035915067ffffffffffffffff82111561059357600080fd5b6020019150368190038213156105a857600080fd5b9250929050565b634e487b7160e01b600052604160045260246000fd5b600181811c908216806105d957607f821691505b602082108114156105fa57634e487b7160e01b600052602260045260246000fd5b50919050565b601f82111561014257600081815260208120601f850160051c810160208610156106275750805b601f850160051c820191505b8181101561064657828155600101610633565b505050505050565b67ffffffffffffffff831115610666576106666105af565b61067a8361067483546105c5565b83610600565b6000601f8411600181146106ae57600085156106965750838201355b600019600387901b1c1916600186901b178355610708565b600083815260209020601f19861690835b828110156106df57868501358255602094850194600190920191016106bf565b50868210156106fc5760001960f88860031b161c19848701351681555b505060018560011b0183555b5050505050565b6107198283610561565b67ffffffffffffffff811115610731576107316105af565b6107458161073f85546105c5565b85610600565b6000601f82116001811461077957600083156107615750838201355b600019600385901b1c1916600184901b1785556107d3565b600085815260209020601f19841690835b828110156107aa578685013582556020948501946001909201910161078a565b50848210156107c75760001960f88660031b161c19848701351681555b505060018360011b0185555b505050506107e46020830183610561565b6107f281836001860161064e565b50506108016040830183610561565b61080f81836002860161064e565b50505050565b600060001982141561083757634e487b7160e01b600052601160045260246000fd5b506001019056fea264697066735822122088615536aed9b4dae8f8bb4f9ab4e1a9c9a6f96634df13e0be1d6a6397f23bea64736f6c63430008090033",
  "linkReferences": {},
  "deployedLinkReferences": {}
}