{
  "_format": "hh-sol-artifact-1",
  "contractName": "TestGM721",
  "sourceName": "contracts/common/tests/contracts/TestGM721.sol",
  "abi": [
    {
      "inputs": [
        {
          "internalType": "string",
          "name": "collectionName",
          "type": "string"
        },
        {
          "internalType": "string",
          "name": "collectionSymbol",
          "type": "string"
        }
      ],
      "stateMutability": "nonpayable",
      "type": "constructor"
    },
    {
      "inputs": [
        {
          "internalType": "address",
          "name": "to",
          "type": "address"
        },
        {
          "internalType": "uint256",
          "name": "tokenId",
          "type": "uint256"
        }
      ],
      "name": "TransferIsNotSupported",
      "type": "error"
    },
    {
      "anonymous": false,
      "inputs": [
        {
          "indexed": true,
          "internalType": "address",
          "name": "owner",
          "type": "address"
        },
        {
          "indexed": true,
          "internalType": "address",
          "name": "approved",
          "type": "address"
        },
        {
          "indexed": true,
          "internalType": "uint256",
          "name": "tokenId",
          "type": "uint256"
        }
      ],
      "name": "Approval",
      "type": "event"
    },
    {
      "anonymous": false,
      "inputs": [
        {
          "indexed": true,
          "internalType": "address",
          "name": "owner",
          "type": "address"
        },
        {
          "indexed": true,
          "internalType": "address",
          "name": "operator",
          "type": "address"
        },
        {
          "indexed": false,
          "internalType": "bool",
          "name": "approved",
          "type": "bool"
        }
      ],
      "name": "ApprovalForAll",
      "type": "event"
    },
    {
      "anonymous": false,
      "inputs": [
        {
          "indexed": true,
          "internalType": "address",
          "name": "from",
          "type": "address"
        },
        {
          "indexed": true,
          "internalType": "address",
          "name": "to",
          "type": "address"
        },
        {
          "indexed": true,
          "internalType": "uint256",
          "name": "tokenId",
          "type": "uint256"
        }
      ],
      "name": "Transfer",
      "type": "event"
    },
    {
      "inputs": [
        {
          "internalType": "address",
          "name": "to",
          "type": "address"
        },
        {
          "internalType": "uint256",
          "name": "tokenId",
          "type": "uint256"
        }
      ],
      "name": "approve",
      "outputs": [],
      "stateMutability": "nonpayable",
      "type": "function"
    },
    {
      "inputs": [
        {
          "internalType": "address",
          "name": "owner",
          "type": "address"
        }
      ],
      "name": "balanceOf",
      "outputs": [
        {
          "internalType": "uint256",
          "name": "",
          "type": "uint256"
        }
      ],
      "stateMutability": "view",
      "type": "function"
    },
    {
      "inputs": [
        {
          "internalType": "address",
          "name": "to",
          "type": "address"
        },
        {
          "internalType": "uint256[]",
          "name": "tokenIds",
          "type": "uint256[]"
        }
      ],
      "name": "batchMint",
      "outputs": [],
      "stateMutability": "nonpayable",
      "type": "function"
    },
    {
      "inputs": [],
      "name": "beforeBatchMintExecuted",
      "outputs": [
        {
          "internalType": "bool",
          "name": "",
          "type": "bool"
        }
      ],
      "stateMutability": "view",
      "type": "function"
    },
    {
      "inputs": [
        {
          "internalType": "uint256",
          "name": "tokenId",
          "type": "uint256"
        }
      ],
      "name": "burn",
      "outputs": [],
      "stateMutability": "nonpayable",
      "type": "function"
    },
    {
      "inputs": [
        {
          "internalType": "address",
          "name": "from",
          "type": "address"
        },
        {
          "internalType": "address",
          "name": "to",
          "type": "address"
        },
        {
          "internalType": "uint256",
          "name": "tokenId",
          "type": "uint256"
        },
        {
          "internalType": "bytes",
          "name": "_data",
          "type": "bytes"
        }
      ],
      "name": "checkERC721Compatibility",
      "outputs": [
        {
          "internalType": "bool",
          "name": "",
          "type": "bool"
        }
      ],
      "stateMutability": "nonpayable",
      "type": "function"
    },
    {
      "inputs": [
        {
          "internalType": "uint256",
          "name": "tokenId",
          "type": "uint256"
        }
      ],
      "name": "getApproved",
      "outputs": [
        {
          "internalType": "address",
          "name": "",
          "type": "address"
        }
      ],
      "stateMutability": "view",
      "type": "function"
    },
    {
      "inputs": [
        {
          "internalType": "uint256",
          "name": "i",
          "type": "uint256"
        }
      ],
      "name": "increment",
      "outputs": [
        {
          "internalType": "uint256",
          "name": "",
          "type": "uint256"
        }
      ],
      "stateMutability": "pure",
      "type": "function"
    },
    {
      "inputs": [
        {
          "internalType": "address",
          "name": "owner",
          "type": "address"
        },
        {
          "internalType": "address",
          "name": "operator",
          "type": "address"
        }
      ],
      "name": "isApprovedForAll",
      "outputs": [
        {
          "internalType": "bool",
          "name": "",
          "type": "bool"
        }
      ],
      "stateMutability": "view",
      "type": "function"
    },
    {
      "inputs": [],
      "name": "name",
      "outputs": [
        {
          "internalType": "string",
          "name": "",
          "type": "string"
        }
      ],
      "stateMutability": "view",
      "type": "function"
    },
    {
      "inputs": [
        {
          "internalType": "uint256",
          "name": "tokenId",
          "type": "uint256"
        }
      ],
      "name": "ownerOf",
      "outputs": [
        {
          "internalType": "address",
          "name": "",
          "type": "address"
        }
      ],
      "stateMutability": "view",
      "type": "function"
    },
    {
      "inputs": [
        {
          "internalType": "address",
          "name": "from",
          "type": "address"
        },
        {
          "internalType": "address",
          "name": "to",
          "type": "address"
        },
        {
          "internalType": "uint256",
          "name": "tokenId",
          "type": "uint256"
        }
      ],
      "name": "safeTransferFrom",
      "outputs": [],
      "stateMutability": "nonpayable",
      "type": "function"
    },
    {
      "inputs": [
        {
          "internalType": "address",
          "name": "from",
          "type": "address"
        },
        {
          "internalType": "address",
          "name": "to",
          "type": "address"
        },
        {
          "internalType": "uint256",
          "name": "tokenId",
          "type": "uint256"
        },
        {
          "internalType": "bytes",
          "name": "data",
          "type": "bytes"
        }
      ],
      "name": "safeTransferFrom",
      "outputs": [],
      "stateMutability": "nonpayable",
      "type": "function"
    },
    {
      "inputs": [
        {
          "internalType": "address",
          "name": "operator",
          "type": "address"
        },
        {
          "internalType": "bool",
          "name": "approved",
          "type": "bool"
        }
      ],
      "name": "setApprovalForAll",
      "outputs": [],
      "stateMutability": "nonpayable",
      "type": "function"
    },
    {
      "inputs": [
        {
          "internalType": "bytes4",
          "name": "interfaceId",
          "type": "bytes4"
        }
      ],
      "name": "supportsInterface",
      "outputs": [
        {
          "internalType": "bool",
          "name": "",
          "type": "bool"
        }
      ],
      "stateMutability": "view",
      "type": "function"
    },
    {
      "inputs": [],
      "name": "symbol",
      "outputs": [
        {
          "internalType": "string",
          "name": "",
          "type": "string"
        }
      ],
      "stateMutability": "view",
      "type": "function"
    },
    {
      "inputs": [
        {
          "internalType": "uint256",
          "name": "tokenId",
          "type": "uint256"
        }
      ],
      "name": "tokenURI",
      "outputs": [
        {
          "internalType": "string",
          "name": "",
          "type": "string"
        }
      ],
      "stateMutability": "view",
      "type": "function"
    },
    {
      "inputs": [],
      "name": "totalSupply",
      "outputs": [
        {
          "internalType": "uint256",
          "name": "",
          "type": "uint256"
        }
      ],
      "stateMutability": "view",
      "type": "function"
    },
    {
      "inputs": [
        {
          "internalType": "address",
          "name": "from",
          "type": "address"
        },
        {
          "internalType": "address",
          "name": "to",
          "type": "address"
        },
        {
          "internalType": "uint256",
          "name": "tokenId",
          "type": "uint256"
        }
      ],
      "name": "transferFrom",
      "outputs": [],
      "stateMutability": "nonpayable",
      "type": "function"
    }
  ],
  "bytecode": "0x608060405260006006556007805460ff191690553480156200002057600080fd5b5060405162001963380380620019638339810160408190526200004391620001f5565b8181818181600090805190602001906200005f92919062000082565b5080516200007590600190602084019062000082565b505050505050506200029c565b82805462000090906200025f565b90600052602060002090601f016020900481019282620000b45760008555620000ff565b82601f10620000cf57805160ff1916838001178555620000ff565b82800160010185558215620000ff579182015b82811115620000ff578251825591602001919060010190620000e2565b506200010d92915062000111565b5090565b5b808211156200010d576000815560010162000112565b634e487b7160e01b600052604160045260246000fd5b600082601f8301126200015057600080fd5b81516001600160401b03808211156200016d576200016d62000128565b604051601f8301601f19908116603f0116810190828211818310171562000198576200019862000128565b81604052838152602092508683858801011115620001b557600080fd5b600091505b83821015620001d95785820183015181830184015290820190620001ba565b83821115620001eb5760008385830101525b9695505050505050565b600080604083850312156200020957600080fd5b82516001600160401b03808211156200022157600080fd5b6200022f868387016200013e565b935060208501519150808211156200024657600080fd5b5062000255858286016200013e565b9150509250929050565b600181811c908216806200027457607f821691505b602082108114156200029657634e487b7160e01b600052602260045260246000fd5b50919050565b6116b780620002ac6000396000f3fe608060405234801561001057600080fd5b50600436106101215760003560e01c806353b2774a116100ad578063a22cb46511610071578063a22cb4651461024f578063b88d4fde14610262578063c1f8474614610275578063c87b56dd14610288578063e985e9c51461029b57600080fd5b806353b2774a146102015780636352211e1461020e57806370a08231146102215780637cf5dab01461023457806395d89b411461024757600080fd5b806318160ddd116100f457806318160ddd146101a357806323b872dd146101b557806342842e0e146101c857806342966c68146101db5780634684d7e9146101ee57600080fd5b806301ffc9a71461012657806306fdde031461014e578063081812fc14610163578063095ea7b31461018e575b600080fd5b61013961013436600461112d565b6102d7565b60405190151581526020015b60405180910390f35b610156610329565b60405161014591906111a2565b6101766101713660046111b5565b6103bb565b6040516001600160a01b039091168152602001610145565b6101a161019c3660046111ea565b6103e2565b005b6006545b604051908152602001610145565b6101a16101c3366004611214565b6104fd565b6101a16101d6366004611214565b61052f565b6101a16101e93660046111b5565b61054a565b6101a16101fc366004611250565b61056b565b6007546101399060ff1681565b61017661021c3660046111b5565b610576565b6101a761022f3660046112d6565b6105d6565b6101a76102423660046111b5565b61065c565b610156610667565b6101a161025d3660046112f1565b610676565b6101a1610270366004611343565b610685565b610139610283366004611343565b6106bd565b6101566102963660046111b5565b6106d6565b6101396102a936600461141f565b6001600160a01b03918216600090815260056020908152604080832093909416825291909152205460ff1690565b60006001600160e01b031982166380ac58cd60e01b148061030857506001600160e01b03198216635b5e139f60e01b145b8061032357506301ffc9a760e01b6001600160e01b03198316145b92915050565b60606000805461033890611452565b80601f016020809104026020016040519081016040528092919081815260200182805461036490611452565b80156103b15780601f10610386576101008083540402835291602001916103b1565b820191906000526020600020905b81548152906001019060200180831161039457829003601f168201915b5050505050905090565b60006103c68261074a565b506000908152600460205260409020546001600160a01b031690565b60006103ed82610576565b9050806001600160a01b0316836001600160a01b031614156104605760405162461bcd60e51b815260206004820152602160248201527f4552433732313a20617070726f76616c20746f2063757272656e74206f776e656044820152603960f91b60648201526084015b60405180910390fd5b336001600160a01b038216148061047c575061047c81336102a9565b6104ee5760405162461bcd60e51b815260206004820152603e60248201527f4552433732313a20617070726f76652063616c6c6572206973206e6f7420746f60448201527f6b656e206f776e6572206e6f7220617070726f76656420666f7220616c6c00006064820152608401610457565b6104f883836107ac565b505050565b610508335b8261081a565b6105245760405162461bcd60e51b81526004016104579061148d565b6104f8838383610898565b6104f883838360405180602001604052806000815250610685565b61055381610a34565b60068054906000610563836114f1565b919050555050565b6104f8838383610a62565b6000818152600260205260408120546001600160a01b0316806103235760405162461bcd60e51b8152602060048201526018602482015277115490cdcc8c4e881a5b9d985b1a59081d1bdad95b88125160421b6044820152606401610457565b60006001600160a01b0382166106405760405162461bcd60e51b815260206004820152602960248201527f4552433732313a2061646472657373207a65726f206973206e6f7420612076616044820152683634b21037bbb732b960b91b6064820152608401610457565b506001600160a01b031660009081526003602052604090205490565b600061032382610acd565b60606001805461033890611452565b610681338383610ada565b5050565b61068f338361081a565b6106ab5760405162461bcd60e51b81526004016104579061148d565b6106b784848484610ba9565b50505050565b60006106cb85858585610bdc565b90505b949350505050565b60606106e18261074a565b60006106f860408051602081019091526000815290565b905060008151116107185760405180602001604052806000815250610743565b8061072284610cf9565b604051602001610733929190611508565b6040516020818303038152906040525b9392505050565b6000818152600260205260409020546001600160a01b03166107a95760405162461bcd60e51b8152602060048201526018602482015277115490cdcc8c4e881a5b9d985b1a59081d1bdad95b88125160421b6044820152606401610457565b50565b600081815260046020526040902080546001600160a01b0319166001600160a01b03841690811790915581906107e182610576565b6001600160a01b03167f8c5be1e5ebec7d5bd14f71427d1e84f3dd0314c0f7b2291e5b200ac8c7c3b92560405160405180910390a45050565b60008061082683610576565b9050806001600160a01b0316846001600160a01b0316148061086d57506001600160a01b0380821660009081526005602090815260408083209388168352929052205460ff165b806106ce5750836001600160a01b0316610886846103bb565b6001600160a01b031614949350505050565b826001600160a01b03166108ab82610576565b6001600160a01b03161461090f5760405162461bcd60e51b815260206004820152602560248201527f4552433732313a207472616e736665722066726f6d20696e636f72726563742060448201526437bbb732b960d91b6064820152608401610457565b6001600160a01b0382166109715760405162461bcd60e51b8152602060048201526024808201527f4552433732313a207472616e7366657220746f20746865207a65726f206164646044820152637265737360e01b6064820152608401610457565b61097c6000826107ac565b6001600160a01b03831660009081526003602052604081208054600192906109a5908490611537565b90915550506001600160a01b03821660009081526003602052604081208054600192906109d390849061154e565b909155505060008181526002602052604080822080546001600160a01b0319166001600160a01b0386811691821790925591518493918716917fddf252ad1be2c89b69c2b068fc378daa952ba7f163c4a11628f55a4df523b3ef91a4505050565b610a3d33610502565b610a595760405162461bcd60e51b81526004016104579061148d565b6107a981610df7565b610a6d838383610e92565b6006805482918291600090610a8390849061154e565b90915550600090505b81811015610ac657610ab685858584818110610aaa57610aaa611566565b90506020020135610ea8565b610abf81610acd565b9050610a8c565b5050505050565b600061032382600161154e565b816001600160a01b0316836001600160a01b03161415610b3c5760405162461bcd60e51b815260206004820152601960248201527f4552433732313a20617070726f766520746f2063616c6c6572000000000000006044820152606401610457565b6001600160a01b03838116600081815260056020908152604080832094871680845294825291829020805460ff191686151590811790915591519182527f17307eab39ab6107e8899845ad3d59bd9653f200f220920489ca2b5937696c31910160405180910390a3505050565b610bb4848484610898565b610bc084848484610ec2565b6106b75760405162461bcd60e51b81526004016104579061157c565b60006001600160a01b0384163b15610cf157604051630a85bd0160e11b81526001600160a01b0385169063150b7a0290610c209033908990889088906004016115ce565b602060405180830381600087803b158015610c3a57600080fd5b505af1925050508015610c6a575060408051601f3d908101601f19168201909252610c679181019061160b565b60015b610cd7573d808015610c98576040519150601f19603f3d011682016040523d82523d6000602084013e610c9d565b606091505b508051610ccf576040516393268f6160e01b81526001600160a01b038616600482015260248101859052604401610457565b805181602001fd5b6001600160e01b031916630a85bd0160e11b1490506106ce565b5060016106ce565b606081610d1d5750506040805180820190915260018152600360fc1b602082015290565b8160005b8115610d475780610d3181611628565b9150610d409050600a83611659565b9150610d21565b60008167ffffffffffffffff811115610d6257610d6261132d565b6040519080825280601f01601f191660200182016040528015610d8c576020820181803683370190505b5090505b84156106ce57610da1600183611537565b9150610dae600a8661166d565b610db990603061154e565b60f81b818381518110610dce57610dce611566565b60200101906001600160f81b031916908160001a905350610df0600a86611659565b9450610d90565b6000610e0282610576565b9050610e0f6000836107ac565b6001600160a01b0381166000908152600360205260408120805460019290610e38908490611537565b909155505060008281526002602052604080822080546001600160a01b0319169055518391906001600160a01b038416907fddf252ad1be2c89b69c2b068fc378daa952ba7f163c4a11628f55a4df523b3ef908390a45050565b6007805460ff191660011790556104f883838383565b610681828260405180602001604052806000815250610fa2565b60006001600160a01b0384163b15610cf157604051630a85bd0160e11b81526001600160a01b0385169063150b7a0290610f069033908990889088906004016115ce565b602060405180830381600087803b158015610f2057600080fd5b505af1925050508015610f50575060408051601f3d908101601f19168201909252610f4d9181019061160b565b60015b610cd7573d808015610f7e576040519150601f19603f3d011682016040523d82523d6000602084013e610f83565b606091505b508051610ccf5760405162461bcd60e51b81526004016104579061157c565b610fac8383610fd5565b610fb96000848484610ec2565b6104f85760405162461bcd60e51b81526004016104579061157c565b6001600160a01b03821661102b5760405162461bcd60e51b815260206004820181905260248201527f4552433732313a206d696e7420746f20746865207a65726f20616464726573736044820152606401610457565b6000818152600260205260409020546001600160a01b0316156110905760405162461bcd60e51b815260206004820152601c60248201527f4552433732313a20746f6b656e20616c7265616479206d696e746564000000006044820152606401610457565b6001600160a01b03821660009081526003602052604081208054600192906110b990849061154e565b909155505060008181526002602052604080822080546001600160a01b0319166001600160a01b03861690811790915590518392907fddf252ad1be2c89b69c2b068fc378daa952ba7f163c4a11628f55a4df523b3ef908290a45050565b6001600160e01b0319811681146107a957600080fd5b60006020828403121561113f57600080fd5b813561074381611117565b60005b8381101561116557818101518382015260200161114d565b838111156106b75750506000910152565b6000815180845261118e81602086016020860161114a565b601f01601f19169290920160200192915050565b6020815260006107436020830184611176565b6000602082840312156111c757600080fd5b5035919050565b80356001600160a01b03811681146111e557600080fd5b919050565b600080604083850312156111fd57600080fd5b611206836111ce565b946020939093013593505050565b60008060006060848603121561122957600080fd5b611232846111ce565b9250611240602085016111ce565b9150604084013590509250925092565b60008060006040848603121561126557600080fd5b61126e846111ce565b9250602084013567ffffffffffffffff8082111561128b57600080fd5b818601915086601f83011261129f57600080fd5b8135818111156112ae57600080fd5b8760208260051b85010111156112c357600080fd5b6020830194508093505050509250925092565b6000602082840312156112e857600080fd5b610743826111ce565b6000806040838503121561130457600080fd5b61130d836111ce565b91506020830135801515811461132257600080fd5b809150509250929050565b634e487b7160e01b600052604160045260246000fd5b6000806000806080858703121561135957600080fd5b611362856111ce565b9350611370602086016111ce565b925060408501359150606085013567ffffffffffffffff8082111561139457600080fd5b818701915087601f8301126113a857600080fd5b8135818111156113ba576113ba61132d565b604051601f8201601f19908116603f011681019083821181831017156113e2576113e261132d565b816040528281528a60208487010111156113fb57600080fd5b82602086016020830137600060208483010152809550505050505092959194509250565b6000806040838503121561143257600080fd5b61143b836111ce565b9150611449602084016111ce565b90509250929050565b600181811c9082168061146657607f821691505b6020821081141561148757634e487b7160e01b600052602260045260246000fd5b50919050565b6020808252602e908201527f4552433732313a2063616c6c6572206973206e6f7420746f6b656e206f776e6560408201526d1c881b9bdc88185c1c1c9bdd995960921b606082015260800190565b634e487b7160e01b600052601160045260246000fd5b600081611500576115006114db565b506000190190565b6000835161151a81846020880161114a565b83519083019061152e81836020880161114a565b01949350505050565b600082821015611549576115496114db565b500390565b60008219821115611561576115616114db565b500190565b634e487b7160e01b600052603260045260246000fd5b60208082526032908201527f4552433732313a207472616e7366657220746f206e6f6e20455243373231526560408201527131b2b4bb32b91034b6b83632b6b2b73a32b960711b606082015260800190565b6001600160a01b038581168252841660208201526040810183905260806060820181905260009061160190830184611176565b9695505050505050565b60006020828403121561161d57600080fd5b815161074381611117565b600060001982141561163c5761163c6114db565b5060010190565b634e487b7160e01b600052601260045260246000fd5b60008261166857611668611643565b500490565b60008261167c5761167c611643565b50069056fea2646970667358221220672d91b2a15e0be6d3c4478a7e65ab51b2809a596f3de8300c9c2fcffe9a880d64736f6c63430008090033",
  "linkReferences": {},
  "deployedLinkReferences": {}
}