{
  "_format": "hh-sol-artifact-1",
  "contractName": "TestGM2981",
  "sourceName": "contracts/common/tests/contracts/TestGM2981.sol",
  "abi": [
    {
      "inputs": [
        {
          "internalType": "address",
          "name": "royaltyAddress_",
          "type": "address"
        },
        {
          "internalType": "uint16",
          "name": "royaltyPercentage_",
          "type": "uint16"
        }
      ],
      "stateMutability": "nonpayable",
      "type": "constructor"
    },
    {
      "inputs": [],
      "name": "beforeRoyaltyInfo",
      "outputs": [
        {
          "internalType": "bool",
          "name": "",
          "type": "bool"
        }
      ],
      "stateMutability": "view",
      "type": "function"
    },
    {
      "inputs": [
        {
          "internalType": "uint256",
          "name": "value",
          "type": "uint256"
        },
        {
          "internalType": "uint16",
          "name": "percent",
          "type": "uint16"
        }
      ],
      "name": "calculatePercentage",
      "outputs": [
        {
          "internalType": "uint256",
          "name": "",
          "type": "uint256"
        }
      ],
      "stateMutability": "pure",
      "type": "function"
    },
    {
      "inputs": [],
      "name": "royaltyAddress",
      "outputs": [
        {
          "internalType": "address",
          "name": "",
          "type": "address"
        }
      ],
      "stateMutability": "view",
      "type": "function"
    },
    {
      "inputs": [
        {
          "internalType": "uint256",
          "name": "tokenId",
          "type": "uint256"
        },
        {
          "internalType": "uint256",
          "name": "salePrice",
          "type": "uint256"
        }
      ],
      "name": "royaltyInfo",
      "outputs": [
        {
          "internalType": "address",
          "name": "receiver",
          "type": "address"
        },
        {
          "internalType": "uint256",
          "name": "royaltyAmount",
          "type": "uint256"
        }
      ],
      "stateMutability": "view",
      "type": "function"
    },
    {
      "inputs": [],
      "name": "royaltyPercentage",
      "outputs": [
        {
          "internalType": "uint16",
          "name": "",
          "type": "uint16"
        }
      ],
      "stateMutability": "view",
      "type": "function"
    },
    {
      "inputs": [],
      "name": "setBeforeRoyaltyInfoToFalse",
      "outputs": [],
      "stateMutability": "nonpayable",
      "type": "function"
    },
    {
      "inputs": [
        {
          "internalType": "address",
          "name": "newRoyaltyAddress",
          "type": "address"
        }
      ],
      "name": "setRoyaltyAddress",
      "outputs": [],
      "stateMutability": "nonpayable",
      "type": "function"
    },
    {
      "inputs": [
        {
          "internalType": "bytes4",
          "name": "interfaceId",
          "type": "bytes4"
        }
      ],
      "name": "supportsInterface",
      "outputs": [
        {
          "internalType": "bool",
          "name": "",
          "type": "bool"
        }
      ],
      "stateMutability": "view",
      "type": "function"
    }
  ],
  "bytecode": "0x60806040526000805460ff60b01b1916600160b01b17905534801561002357600080fd5b5060405161048a38038061048a83398101604081905261004291610075565b6000805461ffff909216600160a01b026001600160b01b03199092166001600160a01b03909316929092171790556100c2565b6000806040838503121561008857600080fd5b82516001600160a01b038116811461009f57600080fd5b602084015190925061ffff811681146100b757600080fd5b809150509250929050565b6103b9806100d16000396000f3fe608060405234801561001057600080fd5b50600436106100885760003560e01c80635eb9014d1161005b5780635eb9014d1461012b5780638a71bb2d1461013f578063ad2f852a14610160578063bd0ae2311461017b57600080fd5b806301ffc9a71461008d57806306d254da146100b55780632a55205a146100e757806358f0685314610119575b600080fd5b6100a061009b366004610288565b61019c565b60405190151581526020015b60405180910390f35b6100e56100c33660046102b2565b600080546001600160a01b0319166001600160a01b0392909216919091179055565b005b6100fa6100f53660046102db565b6101d3565b604080516001600160a01b0390931683526020830191909152016100ac565b6100e56000805460ff60b01b19169055565b6000546100a090600160b01b900460ff1681565b600054600160a01b900461ffff1660405161ffff90911681526020016100ac565b6000546040516001600160a01b0390911681526020016100ac565b61018e6101893660046102fd565b61020d565b6040519081526020016100ac565b60006001600160e01b0319821663152a902d60e11b14806101cd57506301ffc9a760e01b6001600160e01b03198316145b92915050565b6000806101df84610220565b6000546001600160a01b0381169250610204908490600160a01b900461ffff1661026b565b90509250929050565b6000610219838361026b565b9392505050565b600054600160b01b900460ff166102685760405162461bcd60e51b8152602060048201526008602482015267195e1958dd5d195960c21b604482015260640160405180910390fd5b50565b60006103e861027e61ffff841685610334565b6102199190610361565b60006020828403121561029a57600080fd5b81356001600160e01b03198116811461021957600080fd5b6000602082840312156102c457600080fd5b81356001600160a01b038116811461021957600080fd5b600080604083850312156102ee57600080fd5b50508035926020909101359150565b6000806040838503121561031057600080fd5b82359150602083013561ffff8116811461032957600080fd5b809150509250929050565b600081600019048311821515161561035c57634e487b7160e01b600052601160045260246000fd5b500290565b60008261037e57634e487b7160e01b600052601260045260246000fd5b50049056fea2646970667358221220ba46c542ad71bce51688521e1136dd019e111ab7f82769495a61ac1c008c382f64736f6c63430008090033",
  "linkReferences": {},
  "deployedLinkReferences": {}
}