{
  "_format": "hh-sol-artifact-1",
  "contractName": "GMAttributesController",
  "sourceName": "contracts/common/contracts/GMAttributesController.sol",
  "abi": [
    {
      "inputs": [
        {
          "internalType": "address",
          "name": "from",
          "type": "address"
        },
        {
          "internalType": "uint256",
          "name": "tokenId",
          "type": "uint256"
        }
      ],
      "name": "getDynamicAttributes",
      "outputs": [
        {
          "components": [
            {
              "internalType": "string",
              "name": "displayType",
              "type": "string"
            },
            {
              "internalType": "string",
              "name": "traitType",
              "type": "string"
            },
            {
              "internalType": "string",
              "name": "value",
              "type": "string"
            }
          ],
          "internalType": "struct Attribute[]",
          "name": "attributes",
          "type": "tuple[]"
        }
      ],
      "stateMutability": "view",
      "type": "function"
    },
    {
      "inputs": [
        {
          "internalType": "bytes4",
          "name": "interfaceId",
          "type": "bytes4"
        }
      ],
      "name": "supportsInterface",
      "outputs": [
        {
          "internalType": "bool",
          "name": "",
          "type": "bool"
        }
      ],
      "stateMutability": "view",
      "type": "function"
    }
  ],
  "bytecode": "0x608060405234801561001057600080fd5b5061024a806100206000396000f3fe608060405234801561001057600080fd5b50600436106100365760003560e01c806301ffc9a71461003b5780638710386114610063575b600080fd5b61004e6100493660046100bd565b610086565b60405190151581526020015b60405180910390f35b6100796100713660046100ee565b606092915050565b60405161005a9190610173565b60006001600160e01b03198216638710386160e01b14806100b757506301ffc9a760e01b6001600160e01b03198316145b92915050565b6000602082840312156100cf57600080fd5b81356001600160e01b0319811681146100e757600080fd5b9392505050565b6000806040838503121561010157600080fd5b82356001600160a01b038116811461011857600080fd5b946020939093013593505050565b6000815180845260005b8181101561014c57602081850181015186830182015201610130565b8181111561015e576000602083870101525b50601f01601f19169290920160200192915050565b60006020808301818452808551808352604092508286019150828160051b87010184880160005b8381101561020657603f198984030185528151606081518186526101c082870182610126565b915050888201518582038a8701526101d88282610126565b915050878201519150848103888601526101f28183610126565b96890196945050509086019060010161019a565b50909897505050505050505056fea26469706673582212206b777f73cf0051d7f936d75610e383b0757ac30fc2134b1790d9df9f19fcb89d64736f6c63430008090033",
  "linkReferences": {},
  "deployedLinkReferences": {}
}