{
  "_format": "hh-sol-artifact-1",
  "contractName": "TestLibraryDynamicMetadata",
  "sourceName": "contracts/common/tests/contracts/TestLibraryDynamicMetadata.sol",
  "abi": [
    {
      "inputs": [
        {
          "components": [
            {
              "internalType": "string",
              "name": "displayType",
              "type": "string"
            },
            {
              "internalType": "string",
              "name": "traitType",
              "type": "string"
            },
            {
              "internalType": "string",
              "name": "value",
              "type": "string"
            }
          ],
          "internalType": "struct Attribute[]",
          "name": "newBaseAttributes",
          "type": "tuple[]"
        }
      ],
      "name": "appendBaseAttributes",
      "outputs": [],
      "stateMutability": "nonpayable",
      "type": "function"
    },
    {
      "inputs": [
        {
          "components": [
            {
              "internalType": "string",
              "name": "displayType",
              "type": "string"
            },
            {
              "internalType": "string",
              "name": "traitType",
              "type": "string"
            },
            {
              "internalType": "string",
              "name": "value",
              "type": "string"
            }
          ],
          "internalType": "struct Attribute[]",
          "name": "baseAttributes_",
          "type": "tuple[]"
        },
        {
          "components": [
            {
              "internalType": "string",
              "name": "displayType",
              "type": "string"
            },
            {
              "internalType": "string",
              "name": "traitType",
              "type": "string"
            },
            {
              "internalType": "string",
              "name": "value",
              "type": "string"
            }
          ],
          "internalType": "struct Attribute[]",
          "name": "dynamicAttributes",
          "type": "tuple[]"
        }
      ],
      "name": "concatDynamicAttributes",
      "outputs": [
        {
          "components": [
            {
              "internalType": "string",
              "name": "displayType",
              "type": "string"
            },
            {
              "internalType": "string",
              "name": "traitType",
              "type": "string"
            },
            {
              "internalType": "string",
              "name": "value",
              "type": "string"
            }
          ],
          "internalType": "struct Attribute[]",
          "name": "",
          "type": "tuple[]"
        }
      ],
      "stateMutability": "pure",
      "type": "function"
    },
    {
      "inputs": [],
      "name": "getBaseAttributes",
      "outputs": [
        {
          "components": [
            {
              "internalType": "string",
              "name": "displayType",
              "type": "string"
            },
            {
              "internalType": "string",
              "name": "traitType",
              "type": "string"
            },
            {
              "internalType": "string",
              "name": "value",
              "type": "string"
            }
          ],
          "internalType": "struct Attribute[]",
          "name": "",
          "type": "tuple[]"
        }
      ],
      "stateMutability": "view",
      "type": "function"
    },
    {
      "inputs": [
        {
          "internalType": "string",
          "name": "key",
          "type": "string"
        },
        {
          "internalType": "string",
          "name": "value",
          "type": "string"
        }
      ],
      "name": "keyValueToJsonInBytes",
      "outputs": [
        {
          "internalType": "bytes",
          "name": "",
          "type": "bytes"
        }
      ],
      "stateMutability": "pure",
      "type": "function"
    },
    {
      "inputs": [
        {
          "components": [
            {
              "internalType": "string",
              "name": "displayType",
              "type": "string"
            },
            {
              "internalType": "string",
              "name": "traitType",
              "type": "string"
            },
            {
              "internalType": "string",
              "name": "value",
              "type": "string"
            }
          ],
          "internalType": "struct Attribute[]",
          "name": "attributesToMap",
          "type": "tuple[]"
        }
      ],
      "name": "mapToBytes",
      "outputs": [
        {
          "internalType": "bytes",
          "name": "",
          "type": "bytes"
        }
      ],
      "stateMutability": "pure",
      "type": "function"
    },
    {
      "inputs": [
        {
          "components": [
            {
              "internalType": "string",
              "name": "description",
              "type": "string"
            },
            {
              "internalType": "string",
              "name": "image",
              "type": "string"
            },
            {
              "internalType": "string",
              "name": "name",
              "type": "string"
            },
            {
              "components": [
                {
                  "internalType": "string",
                  "name": "displayType",
                  "type": "string"
                },
                {
                  "internalType": "string",
                  "name": "traitType",
                  "type": "string"
                },
                {
                  "internalType": "string",
                  "name": "value",
                  "type": "string"
                }
              ],
              "internalType": "struct Attribute[]",
              "name": "attributes",
              "type": "tuple[]"
            },
            {
              "components": [
                {
                  "internalType": "address",
                  "name": "recipientAddress",
                  "type": "address"
                },
                {
                  "internalType": "uint16",
                  "name": "feePercentage",
                  "type": "uint16"
                }
              ],
              "internalType": "struct Royalty",
              "name": "royalty",
              "type": "tuple"
            }
          ],
          "internalType": "struct Metadata",
          "name": "metadata",
          "type": "tuple"
        }
      ],
      "name": "toBase64URI",
      "outputs": [
        {
          "internalType": "string",
          "name": "",
          "type": "string"
        }
      ],
      "stateMutability": "pure",
      "type": "function"
    },
    {
      "inputs": [
        {
          "components": [
            {
              "internalType": "string",
              "name": "displayType",
              "type": "string"
            },
            {
              "internalType": "string",
              "name": "traitType",
              "type": "string"
            },
            {
              "internalType": "string",
              "name": "value",
              "type": "string"
            }
          ],
          "internalType": "struct Attribute",
          "name": "attribute",
          "type": "tuple"
        }
      ],
      "name": "toBytes",
      "outputs": [
        {
          "internalType": "bytes",
          "name": "",
          "type": "bytes"
        }
      ],
      "stateMutability": "pure",
      "type": "function"
    }
  ],
  "bytecode": "0x608060405234801561001057600080fd5b50610fc2806100206000396000f3fe608060405234801561001057600080fd5b506004361061007d5760003560e01c8063679f45a51161005b578063679f45a5146100de578063914ae8ce146100e6578063de3698fb146100fb578063f2fde9a61461010e57600080fd5b80632491645614610082578063523a61c8146100ab578063584ae25d146100cb575b600080fd5b6100956100903660046106d8565b610121565b6040516100a2919061079f565b60405180910390f35b6100be6100b93660046107f6565b6101be565b6040516100a29190610855565b6100956100d93660046108f6565b610252565b6100be6102e6565b6100f96100f4366004610930565b6104fb565b005b610095610109366004610971565b61056b565b61009561011c366004610930565b6105f9565b604051631248b22b60e11b815260609073__$76aaa174a4a37c573814e3ab8089977c33$__906324916456906101619088908890889088906004016109d4565b60006040518083038186803b15801561017957600080fd5b505af415801561018d573d6000803e3d6000fd5b505050506040513d6000823e601f3d908101601f191682016040526101b59190810190610ac2565b95945050505050565b604051630e914a8160e41b815260609073__$76aaa174a4a37c573814e3ab8089977c33$__9063e914a810906101fe908890889088908890600401610c2b565b60006040518083038186803b15801561021657600080fd5b505af415801561022a573d6000803e3d6000fd5b505050506040513d6000823e601f3d908101601f191682016040526101b59190810190610c72565b60405163ec735f0f60e01b815260609073__$76aaa174a4a37c573814e3ab8089977c33$__9063ec735f0f9061028c908590600401610db6565b60006040518083038186803b1580156102a457600080fd5b505af41580156102b8573d6000803e3d6000fd5b505050506040513d6000823e601f3d908101601f191682016040526102e09190810190610ac2565b92915050565b60606000805480602002602001604051908101604052809291908181526020016000905b828210156104f2578382906000526020600020906003020160405180606001604052908160008201805461033d90610dc9565b80601f016020809104026020016040519081016040528092919081815260200182805461036990610dc9565b80156103b65780601f1061038b576101008083540402835291602001916103b6565b820191906000526020600020905b81548152906001019060200180831161039957829003601f168201915b505050505081526020016001820180546103cf90610dc9565b80601f01602080910402602001604051908101604052809291908181526020018280546103fb90610dc9565b80156104485780601f1061041d57610100808354040283529160200191610448565b820191906000526020600020905b81548152906001019060200180831161042b57829003601f168201915b5050505050815260200160028201805461046190610dc9565b80601f016020809104026020016040519081016040528092919081815260200182805461048d90610dc9565b80156104da5780601f106104af576101008083540402835291602001916104da565b820191906000526020600020905b8154815290600101906020018083116104bd57829003601f168201915b5050505050815250508152602001906001019061030a565b50505050905090565b604051631ca2a00b60e11b815273__$76aaa174a4a37c573814e3ab8089977c33$__906339454016906105379060009086908690600401610e04565b60006040518083038186803b15801561054f57600080fd5b505af4158015610563573d6000803e3d6000fd5b505050505050565b604051632af6f83960e11b815260609073__$76aaa174a4a37c573814e3ab8089977c33$__906355edf072906105a5908590600401610e5b565b60006040518083038186803b1580156105bd57600080fd5b505af41580156105d1573d6000803e3d6000fd5b505050506040513d6000823e601f3d908101601f191682016040526102e09190810190610f44565b6040516348bee07960e11b815260609073__$76aaa174a4a37c573814e3ab8089977c33$__9063917dc0f2906106359086908690600401610f78565b60006040518083038186803b15801561064d57600080fd5b505af4158015610661573d6000803e3d6000fd5b505050506040513d6000823e601f3d908101601f191682016040526106899190810190610ac2565b9392505050565b60008083601f8401126106a257600080fd5b5081356001600160401b038111156106b957600080fd5b6020830191508360208285010111156106d157600080fd5b9250929050565b600080600080604085870312156106ee57600080fd5b84356001600160401b038082111561070557600080fd5b61071188838901610690565b9096509450602087013591508082111561072a57600080fd5b5061073787828801610690565b95989497509550505050565b60005b8381101561075e578181015183820152602001610746565b8381111561076d576000848401525b50505050565b6000815180845261078b816020860160208601610743565b601f01601f19169290920160200192915050565b6020815260006106896020830184610773565b60008083601f8401126107c457600080fd5b5081356001600160401b038111156107db57600080fd5b6020830191508360208260051b85010111156106d157600080fd5b6000806000806040858703121561080c57600080fd5b84356001600160401b038082111561082357600080fd5b61082f888389016107b2565b9096509450602087013591508082111561084857600080fd5b50610737878288016107b2565b60006020808301818452808551808352604092508286019150828160051b87010184880160005b838110156108e857603f198984030185528151606081518186526108a282870182610773565b915050888201518582038a8701526108ba8282610773565b915050878201519150848103888601526108d48183610773565b96890196945050509086019060010161087c565b509098975050505050505050565b60006020828403121561090857600080fd5b81356001600160401b0381111561091e57600080fd5b82016060818503121561068957600080fd5b6000806020838503121561094357600080fd5b82356001600160401b0381111561095957600080fd5b610965858286016107b2565b90969095509350505050565b60006020828403121561098357600080fd5b81356001600160401b0381111561099957600080fd5b820160c0818503121561068957600080fd5b81835281816020850137506000828201602090810191909152601f909101601f19169091010190565b6040815260006109e86040830186886109ab565b82810360208401526109fb8185876109ab565b979650505050505050565b634e487b7160e01b600052604160045260246000fd5b604051606081016001600160401b0381118282101715610a3e57610a3e610a06565b60405290565b604051601f8201601f191681016001600160401b0381118282101715610a6c57610a6c610a06565b604052919050565b60006001600160401b03831115610a8d57610a8d610a06565b610aa0601f8401601f1916602001610a44565b9050828152838383011115610ab457600080fd5b610689836020830184610743565b600060208284031215610ad457600080fd5b81516001600160401b03811115610aea57600080fd5b8201601f81018413610afb57600080fd5b610b0a84825160208401610a74565b949350505050565b6000808335601e19843603018112610b2957600080fd5b83016020810192503590506001600160401b03811115610b4857600080fd5b8036038313156106d157600080fd5b6000610b638283610b12565b60608552610b756060860182846109ab565b915050610b856020840184610b12565b8583036020870152610b988382846109ab565b92505050610ba96040840184610b12565b8583036040870152610bbc8382846109ab565b9695505050505050565b818352600060208085019450848460051b8601846000805b88811015610c1d578484038a528235605e19893603018112610bfe578283fd5b610c0a858a8301610b57565b9a87019a94505091850191600101610bde565b509198975050505050505050565b604081526000610c3f604083018688610bc6565b82810360208401526109fb818587610bc6565b600082601f830112610c6357600080fd5b61068983835160208501610a74565b60006020808385031215610c8557600080fd5b82516001600160401b0380821115610c9c57600080fd5b818501915085601f830112610cb057600080fd5b815181811115610cc257610cc2610a06565b8060051b610cd1858201610a44565b9182528381018501918581019089841115610ceb57600080fd5b86860192505b83831015610da957825185811115610d095760008081fd5b86016060818c03601f1901811315610d215760008081fd5b610d29610a1c565b8983015188811115610d3b5760008081fd5b610d498e8c83870101610c52565b82525060408084015189811115610d605760008081fd5b610d6e8f8d83880101610c52565b838d015250918301519188831115610d865760008081fd5b610d948e8c85870101610c52565b90820152845250509186019190860190610cf1565b9998505050505050505050565b6020815260006106896020830184610b57565b600181811c90821680610ddd57607f821691505b60208210811415610dfe57634e487b7160e01b600052602260045260246000fd5b50919050565b8381526040602082015260006101b5604083018486610bc6565b80356001600160a01b038116808214610e3657600080fd5b835250602081013561ffff8116808214610e4f57600080fd5b80602085015250505050565b602081526000610e6b8384610b12565b60c06020850152610e8060e0850182846109ab565b915050610e906020850185610b12565b601f1980868503016040870152610ea88483856109ab565b9350610eb76040880188610b12565b9350915080868503016060870152610ed08484846109ab565b935060608701359250601e19873603018312610eeb57600080fd5b91860191823591506001600160401b03821115610f0757600080fd5b8160051b3603871315610f1957600080fd5b858403016080860152610f30838260208501610bc6565b9250505061068960a0840160808601610e1e565b600060208284031215610f5657600080fd5b81516001600160401b03811115610f6c57600080fd5b610b0a84828501610c52565b602081526000610b0a602083018486610bc656fea26469706673582212207e5e407ec6b9cca9c06df4399c8389d5ebd73501ececdd3eafa96ca1b801e91964736f6c63430008090033",
  "linkReferences": {
    "contracts/common/libraries/DynamicMetadata.sol": {
      "DynamicMetadata": [
        {
          "length": 20,
          "start": 339
        },
        {
          "length": 20,
          "start": 496
        },
        {
          "length": 20,
          "start": 644
        },
        {
          "length": 20,
          "start": 1322
        },
        {
          "length": 20,
          "start": 1437
        },
        {
          "length": 20,
          "start": 1579
        }
      ]
    }
  },
  "deployedLinkReferences": {
    "contracts/common/libraries/DynamicMetadata.sol": {
      "DynamicMetadata": [
        {
          "length": 20,
          "start": 307
        },
        {
          "length": 20,
          "start": 464
        },
        {
          "length": 20,
          "start": 612
        },
        {
          "length": 20,
          "start": 1290
        },
        {
          "length": 20,
          "start": 1405
        },
        {
          "length": 20,
          "start": 1547
        }
      ]
    }
  }
}